{
	"FundMe.sol": {
		"FundMe": {
			"abi": [
				{
					"inputs": [
						{
							"internalType": "address",
							"name": "funder",
							"type": "address"
						}
					],
					"name": "addressToAmountFunded",
					"outputs": [
						{
							"internalType": "uint256",
							"name": "amountFunded",
							"type": "uint256"
						}
					],
					"stateMutability": "view",
					"type": "function"
				},
				{
					"inputs": [],
					"name": "fund",
					"outputs": [],
					"stateMutability": "payable",
					"type": "function"
				},
				{
					"inputs": [],
					"name": "getFund",
					"outputs": [
						{
							"internalType": "address[]",
							"name": "",
							"type": "address[]"
						}
					],
					"stateMutability": "view",
					"type": "function"
				},
				{
					"inputs": [],
					"name": "minimumUsd",
					"outputs": [
						{
							"internalType": "uint256",
							"name": "",
							"type": "uint256"
						}
					],
					"stateMutability": "view",
					"type": "function"
				},
				{
					"inputs": [],
					"name": "withdraw",
					"outputs": [],
					"stateMutability": "nonpayable",
					"type": "function"
				}
			],
			"devdoc": {
				"kind": "dev",
				"methods": {},
				"version": 1
			},
			"evm": {
				"assembly": "    /* \"FundMe.sol\":282:2796  contract FundMe... */\n  mstore(0x40, 0x80)\n    /* \"FundMe.sol\":512:526  5 * (10 ** 18) */\n  0x4563918244f40000\n    /* \"FundMe.sol\":484:526  uint256 public minimumUsd = 5 * (10 ** 18) */\n  0x00\n  sstore\n    /* \"FundMe.sol\":282:2796  contract FundMe... */\n  callvalue\n  dup1\n  iszero\n  tag_1\n  jumpi\n  revert(0x00, 0x00)\ntag_1:\n  pop\n  dataSize(sub_0)\n  dup1\n  dataOffset(sub_0)\n  0x00\n  codecopy\n  0x00\n  return\nstop\n\nsub_0: assembly {\n        /* \"FundMe.sol\":282:2796  contract FundMe... */\n      mstore(0x40, 0x80)\n      jumpi(tag_1, lt(calldatasize, 0x04))\n      shr(0xe0, calldataload(0x00))\n      dup1\n      0x098de820\n      eq\n      tag_2\n      jumpi\n      dup1\n      0x3ccfd60b\n      eq\n      tag_3\n      jumpi\n      dup1\n      0x3e47d6f3\n      eq\n      tag_4\n      jumpi\n      dup1\n      0x8edd6eb6\n      eq\n      tag_5\n      jumpi\n      dup1\n      0xb60d4288\n      eq\n      tag_6\n      jumpi\n    tag_1:\n      revert(0x00, 0x00)\n        /* \"FundMe.sol\":484:526  uint256 public minimumUsd = 5 * (10 ** 18) */\n    tag_2:\n      callvalue\n      dup1\n      iszero\n      tag_7\n      jumpi\n      revert(0x00, 0x00)\n    tag_7:\n      pop\n      tag_8\n      tag_9\n      jump\t// in\n    tag_8:\n      mload(0x40)\n      tag_10\n      swap2\n      swap1\n      tag_11\n      jump\t// in\n    tag_10:\n      mload(0x40)\n      dup1\n      swap2\n      sub\n      swap1\n      return\n        /* \"FundMe.sol\":2060:2458  function withdraw() public ... */\n    tag_3:\n      callvalue\n      dup1\n      iszero\n      tag_12\n      jumpi\n      revert(0x00, 0x00)\n    tag_12:\n      pop\n      tag_13\n      tag_14\n      jump\t// in\n    tag_13:\n      stop\n        /* \"FundMe.sol\":678:755  mapping (address funder => uint256 amountFunded) public addressToAmountFunded */\n    tag_4:\n      callvalue\n      dup1\n      iszero\n      tag_15\n      jumpi\n      revert(0x00, 0x00)\n    tag_15:\n      pop\n      tag_16\n      0x04\n      dup1\n      calldatasize\n      sub\n      dup2\n      add\n      swap1\n      tag_17\n      swap2\n      swap1\n      tag_18\n      jump\t// in\n    tag_17:\n      tag_19\n      jump\t// in\n    tag_16:\n      mload(0x40)\n      tag_20\n      swap2\n      swap1\n      tag_11\n      jump\t// in\n    tag_20:\n      mload(0x40)\n      dup1\n      swap2\n      sub\n      swap1\n      return\n        /* \"FundMe.sol\":1876:1969  function getFund() public view returns (address[] memory) {... */\n    tag_5:\n      callvalue\n      dup1\n      iszero\n      tag_21\n      jumpi\n      revert(0x00, 0x00)\n    tag_21:\n      pop\n      tag_22\n      tag_23\n      jump\t// in\n    tag_22:\n      mload(0x40)\n      tag_24\n      swap2\n      swap1\n      tag_25\n      jump\t// in\n    tag_24:\n      mload(0x40)\n      dup1\n      swap2\n      sub\n      swap1\n      return\n        /* \"FundMe.sol\":820:1808  function fund() public payable ... */\n    tag_6:\n      tag_26\n      tag_27\n      jump\t// in\n    tag_26:\n      stop\n        /* \"FundMe.sol\":484:526  uint256 public minimumUsd = 5 * (10 ** 18) */\n    tag_9:\n      sload(0x00)\n      dup2\n      jump\t// out\n        /* \"FundMe.sol\":2060:2458  function withdraw() public ... */\n    tag_14:\n        /* \"FundMe.sol\":2109:2128  uint256 funderIndex */\n      0x00\n        /* \"FundMe.sol\":2131:2132  0 */\n      0x00\n        /* \"FundMe.sol\":2109:2132  uint256 funderIndex = 0 */\n      swap1\n      pop\n        /* \"FundMe.sol\":2104:2451  for (uint256 funderIndex = 0; funderIndex < funders.length; funderIndex = funderIndex + 1 /* funderIndex++ */)... */\n    tag_29:\n        /* \"FundMe.sol\":2148:2155  funders */\n      0x01\n        /* \"FundMe.sol\":2148:2162  funders.length */\n      dup1\n      sload\n      swap1\n      pop\n        /* \"FundMe.sol\":2134:2145  funderIndex */\n      dup2\n        /* \"FundMe.sol\":2134:2162  funderIndex < funders.length */\n      lt\n        /* \"FundMe.sol\":2104:2451  for (uint256 funderIndex = 0; funderIndex < funders.length; funderIndex = funderIndex + 1 /* funderIndex++ */)... */\n      iszero\n      tag_30\n      jumpi\n        /* \"FundMe.sol\":2304:2318  address funder */\n      0x00\n        /* \"FundMe.sol\":2321:2328  funders */\n      0x01\n        /* \"FundMe.sol\":2329:2340  funderIndex */\n      dup3\n        /* \"FundMe.sol\":2321:2341  funders[funderIndex] */\n      dup2\n      sload\n      dup2\n      lt\n      tag_32\n      jumpi\n      tag_33\n      tag_34\n      jump\t// in\n    tag_33:\n    tag_32:\n      swap1\n      0x00\n      mstore\n      keccak256(0x00, 0x20)\n      add\n      0x00\n      swap1\n      sload\n      swap1\n      0x0100\n      exp\n      swap1\n      div\n      0xffffffffffffffffffffffffffffffffffffffff\n      and\n        /* \"FundMe.sol\":2304:2341  address funder = funders[funderIndex] */\n      swap1\n      pop\n        /* \"FundMe.sol\":2424:2425  0 */\n      0x00\n        /* \"FundMe.sol\":2392:2413  addressToAmountFunded */\n      0x02\n        /* \"FundMe.sol\":2392:2421  addressToAmountFunded[funder] */\n      0x00\n        /* \"FundMe.sol\":2414:2420  funder */\n      dup4\n        /* \"FundMe.sol\":2392:2421  addressToAmountFunded[funder] */\n      0xffffffffffffffffffffffffffffffffffffffff\n      and\n      0xffffffffffffffffffffffffffffffffffffffff\n      and\n      dup2\n      mstore\n      0x20\n      add\n      swap1\n      dup2\n      mstore\n      0x20\n      add\n      0x00\n      keccak256\n        /* \"FundMe.sol\":2392:2425  addressToAmountFunded[funder] = 0 */\n      dup2\n      swap1\n      sstore\n      pop\n        /* \"FundMe.sol\":2224:2451  {... */\n      pop\n        /* \"FundMe.sol\":2192:2193  1 */\n      0x01\n        /* \"FundMe.sol\":2178:2189  funderIndex */\n      dup2\n        /* \"FundMe.sol\":2178:2193  funderIndex + 1 */\n      tag_36\n      swap2\n      swap1\n      tag_37\n      jump\t// in\n    tag_36:\n        /* \"FundMe.sol\":2164:2193  funderIndex = funderIndex + 1 */\n      swap1\n      pop\n        /* \"FundMe.sol\":2104:2451  for (uint256 funderIndex = 0; funderIndex < funders.length; funderIndex = funderIndex + 1 /* funderIndex++ */)... */\n      jump(tag_29)\n    tag_30:\n      pop\n        /* \"FundMe.sol\":2060:2458  function withdraw() public ... */\n      jump\t// out\n        /* \"FundMe.sol\":678:755  mapping (address funder => uint256 amountFunded) public addressToAmountFunded */\n    tag_19:\n      mstore(0x20, 0x02)\n      dup1\n      0x00\n      mstore\n      keccak256(0x00, 0x40)\n      0x00\n      swap2\n      pop\n      swap1\n      pop\n      sload\n      dup2\n      jump\t// out\n        /* \"FundMe.sol\":1876:1969  function getFund() public view returns (address[] memory) {... */\n    tag_23:\n        /* \"FundMe.sol\":1916:1932  address[] memory */\n      0x60\n        /* \"FundMe.sol\":1954:1961  funders */\n      0x01\n        /* \"FundMe.sol\":1947:1961  return funders */\n      dup1\n      sload\n      dup1\n      0x20\n      mul\n      0x20\n      add\n      mload(0x40)\n      swap1\n      dup2\n      add\n      0x40\n      mstore\n      dup1\n      swap3\n      swap2\n      swap1\n      dup2\n      dup2\n      mstore\n      0x20\n      add\n      dup3\n      dup1\n      sload\n      dup1\n      iszero\n      tag_39\n      jumpi\n      0x20\n      mul\n      dup3\n      add\n      swap2\n      swap1\n      0x00\n      mstore\n      keccak256(0x00, 0x20)\n      swap1\n    tag_40:\n      dup2\n      0x00\n      swap1\n      sload\n      swap1\n      0x0100\n      exp\n      swap1\n      div\n      0xffffffffffffffffffffffffffffffffffffffff\n      and\n      0xffffffffffffffffffffffffffffffffffffffff\n      and\n      dup2\n      mstore\n      0x20\n      add\n      swap1\n      0x01\n      add\n      swap1\n      dup1\n      dup4\n      gt\n      tag_40\n      jumpi\n    tag_39:\n      pop\n      pop\n      pop\n      pop\n      pop\n      swap1\n      pop\n        /* \"FundMe.sol\":1876:1969  function getFund() public view returns (address[] memory) {... */\n      swap1\n      jump\t// out\n        /* \"FundMe.sol\":820:1808  function fund() public payable ... */\n    tag_27:\n        /* \"FundMe.sol\":1092:1102  minimumUsd */\n      sload(0x00)\n        /* \"FundMe.sol\":1059:1088  msg.value.getConversionRate() */\n      tag_42\n        /* \"FundMe.sol\":1059:1068  msg.value */\n      callvalue\n        /* \"FundMe.sol\":1059:1086  msg.value.getConversionRate */\n      tag_43\n        /* \"FundMe.sol\":1059:1088  msg.value.getConversionRate() */\n      jump\t// in\n    tag_42:\n        /* \"FundMe.sol\":1059:1102  msg.value.getConversionRate() >= minimumUsd */\n      lt\n      iszero\n        /* \"FundMe.sol\":1051:1131  require(msg.value.getConversionRate() >= minimumUsd, \"Not enough ETH was sent.\") */\n      tag_44\n      jumpi\n      mload(0x40)\n      0x08c379a000000000000000000000000000000000000000000000000000000000\n      dup2\n      mstore\n      0x04\n      add\n      tag_45\n      swap1\n      tag_46\n      jump\t// in\n    tag_45:\n      mload(0x40)\n      dup1\n      swap2\n      sub\n      swap1\n      revert\n    tag_44:\n        /* \"FundMe.sol\":1400:1407  funders */\n      0x01\n        /* \"FundMe.sol\":1413:1423  msg.sender */\n      caller\n        /* \"FundMe.sol\":1400:1424  funders.push(msg.sender) */\n      swap1\n      dup1\n      0x01\n      dup2\n      sload\n      add\n      dup1\n      dup3\n      sstore\n      dup1\n      swap2\n      pop\n      pop\n      0x01\n      swap1\n      sub\n      swap1\n      0x00\n      mstore\n      keccak256(0x00, 0x20)\n      add\n      0x00\n      swap1\n      swap2\n      swap1\n      swap2\n      swap1\n      swap2\n      0x0100\n      exp\n      dup2\n      sload\n      dup2\n      0xffffffffffffffffffffffffffffffffffffffff\n      mul\n      not\n      and\n      swap1\n      dup4\n      0xffffffffffffffffffffffffffffffffffffffff\n      and\n      mul\n      or\n      swap1\n      sstore\n      pop\n        /* \"FundMe.sol\":1695:1704  msg.value */\n      callvalue\n        /* \"FundMe.sol\":1658:1679  addressToAmountFunded */\n      0x02\n        /* \"FundMe.sol\":1658:1691  addressToAmountFunded[msg.sender] */\n      0x00\n        /* \"FundMe.sol\":1680:1690  msg.sender */\n      caller\n        /* \"FundMe.sol\":1658:1691  addressToAmountFunded[msg.sender] */\n      0xffffffffffffffffffffffffffffffffffffffff\n      and\n      0xffffffffffffffffffffffffffffffffffffffff\n      and\n      dup2\n      mstore\n      0x20\n      add\n      swap1\n      dup2\n      mstore\n      0x20\n      add\n      0x00\n      keccak256\n      0x00\n        /* \"FundMe.sol\":1658:1704  addressToAmountFunded[msg.sender] += msg.value */\n      dup3\n      dup3\n      sload\n      tag_48\n      swap2\n      swap1\n      tag_37\n      jump\t// in\n    tag_48:\n      swap3\n      pop\n      pop\n      dup2\n      swap1\n      sstore\n      pop\n        /* \"FundMe.sol\":820:1808  function fund() public payable ... */\n      jump\t// out\n        /* \"PriceConverter.sol\":1187:1798  function getConversionRate(uint256 _ethAmount) internal view returns (uint256)... */\n    tag_43:\n        /* \"PriceConverter.sol\":1257:1264  uint256 */\n      0x00\n        /* \"PriceConverter.sol\":1491:1507  uint256 ethPrice */\n      0x00\n        /* \"PriceConverter.sol\":1510:1520  getPrice() */\n      tag_50\n        /* \"PriceConverter.sol\":1510:1518  getPrice */\n      tag_51\n        /* \"PriceConverter.sol\":1510:1520  getPrice() */\n      jump\t// in\n    tag_50:\n        /* \"PriceConverter.sol\":1491:1520  uint256 ethPrice = getPrice() */\n      swap1\n      pop\n        /* \"PriceConverter.sol\":1703:1725  uint256 ethAmountInUsd */\n      0x00\n        /* \"PriceConverter.sol\":1754:1758  1e18 */\n      0x0de0b6b3a7640000\n        /* \"PriceConverter.sol\":1742:1750  ethPrice */\n      dup3\n        /* \"PriceConverter.sol\":1729:1739  _ethAmount */\n      dup6\n        /* \"PriceConverter.sol\":1729:1750  _ethAmount * ethPrice */\n      tag_52\n      swap2\n      swap1\n      tag_53\n      jump\t// in\n    tag_52:\n        /* \"PriceConverter.sol\":1728:1758  (_ethAmount * ethPrice) / 1e18 */\n      tag_54\n      swap2\n      swap1\n      tag_55\n      jump\t// in\n    tag_54:\n        /* \"PriceConverter.sol\":1703:1758  uint256 ethAmountInUsd = (_ethAmount * ethPrice) / 1e18 */\n      swap1\n      pop\n        /* \"PriceConverter.sol\":1776:1790  ethAmountInUsd */\n      dup1\n        /* \"PriceConverter.sol\":1769:1790  return ethAmountInUsd */\n      swap3\n      pop\n      pop\n      pop\n        /* \"PriceConverter.sol\":1187:1798  function getConversionRate(uint256 _ethAmount) internal view returns (uint256)... */\n      swap2\n      swap1\n      pop\n      jump\t// out\n        /* \"PriceConverter.sol\":293:1061  function getPrice() internal view returns (uint256)... */\n    tag_51:\n        /* \"PriceConverter.sol\":336:343  uint256 */\n      0x00\n        /* \"PriceConverter.sol\":664:695  AggregatorV3Interface priceFeed */\n      0x00\n        /* \"PriceConverter.sol\":720:762  0x694AA1769357215DE4FAC081bf1f309aDC325306 */\n      0x694aa1769357215de4fac081bf1f309adc325306\n        /* \"PriceConverter.sol\":664:763  AggregatorV3Interface priceFeed = AggregatorV3Interface(0x694AA1769357215DE4FAC081bf1f309aDC325306) */\n      swap1\n      pop\n        /* \"PriceConverter.sol\":894:907  int256 answer */\n      0x00\n        /* \"PriceConverter.sol\":916:925  priceFeed */\n      dup2\n        /* \"PriceConverter.sol\":916:941  priceFeed.latestRoundData */\n      0xffffffffffffffffffffffffffffffffffffffff\n      and\n      0xfeaf968c\n        /* \"PriceConverter.sol\":916:943  priceFeed.latestRoundData() */\n      mload(0x40)\n      dup2\n      0xffffffff\n      and\n      0xe0\n      shl\n      dup2\n      mstore\n      0x04\n      add\n      0xa0\n      mload(0x40)\n      dup1\n      dup4\n      sub\n      dup2\n      dup7\n      gas\n      staticcall\n      iszero\n      dup1\n      iszero\n      tag_58\n      jumpi\n      returndatacopy(0x00, 0x00, returndatasize)\n      revert(0x00, returndatasize)\n    tag_58:\n      pop\n      pop\n      pop\n      pop\n      mload(0x40)\n      returndatasize\n      not(0x1f)\n      0x1f\n      dup3\n      add\n      and\n      dup3\n      add\n      dup1\n      0x40\n      mstore\n      pop\n      dup2\n      add\n      swap1\n      tag_59\n      swap2\n      swap1\n      tag_60\n      jump\t// in\n    tag_59:\n        /* \"PriceConverter.sol\":891:943  (, int256 answer, , ,) = priceFeed.latestRoundData() */\n      pop\n      pop\n      pop\n      swap2\n      pop\n      pop\n        /* \"PriceConverter.sol\":1046:1050  1e10 */\n      0x02540be400\n        /* \"PriceConverter.sol\":1037:1043  answer */\n      dup2\n        /* \"PriceConverter.sol\":1037:1050  answer * 1e10 */\n      tag_61\n      swap2\n      swap1\n      tag_62\n      jump\t// in\n    tag_61:\n        /* \"PriceConverter.sol\":1022:1051  return uint256(answer * 1e10) */\n      swap3\n      pop\n      pop\n      pop\n        /* \"PriceConverter.sol\":293:1061  function getPrice() internal view returns (uint256)... */\n      swap1\n      jump\t// out\n        /* \"#utility.yul\":7:84   */\n    tag_63:\n        /* \"#utility.yul\":44:51   */\n      0x00\n        /* \"#utility.yul\":73:78   */\n      dup2\n        /* \"#utility.yul\":62:78   */\n      swap1\n      pop\n        /* \"#utility.yul\":7:84   */\n      swap2\n      swap1\n      pop\n      jump\t// out\n        /* \"#utility.yul\":90:208   */\n    tag_64:\n        /* \"#utility.yul\":177:201   */\n      tag_95\n        /* \"#utility.yul\":195:200   */\n      dup2\n        /* \"#utility.yul\":177:201   */\n      tag_63\n      jump\t// in\n    tag_95:\n        /* \"#utility.yul\":172:175   */\n      dup3\n        /* \"#utility.yul\":165:202   */\n      mstore\n        /* \"#utility.yul\":90:208   */\n      pop\n      pop\n      jump\t// out\n        /* \"#utility.yul\":214:436   */\n    tag_11:\n        /* \"#utility.yul\":307:311   */\n      0x00\n        /* \"#utility.yul\":345:347   */\n      0x20\n        /* \"#utility.yul\":334:343   */\n      dup3\n        /* \"#utility.yul\":330:348   */\n      add\n        /* \"#utility.yul\":322:348   */\n      swap1\n      pop\n        /* \"#utility.yul\":358:429   */\n      tag_97\n        /* \"#utility.yul\":426:427   */\n      0x00\n        /* \"#utility.yul\":415:424   */\n      dup4\n        /* \"#utility.yul\":411:428   */\n      add\n        /* \"#utility.yul\":402:408   */\n      dup5\n        /* \"#utility.yul\":358:429   */\n      tag_64\n      jump\t// in\n    tag_97:\n        /* \"#utility.yul\":214:436   */\n      swap3\n      swap2\n      pop\n      pop\n      jump\t// out\n        /* \"#utility.yul\":523:640   */\n    tag_66:\n        /* \"#utility.yul\":632:633   */\n      0x00\n        /* \"#utility.yul\":629:630   */\n      0x00\n        /* \"#utility.yul\":622:634   */\n      revert\n        /* \"#utility.yul\":769:895   */\n    tag_68:\n        /* \"#utility.yul\":806:813   */\n      0x00\n        /* \"#utility.yul\":846:888   */\n      0xffffffffffffffffffffffffffffffffffffffff\n        /* \"#utility.yul\":839:844   */\n      dup3\n        /* \"#utility.yul\":835:889   */\n      and\n        /* \"#utility.yul\":824:889   */\n      swap1\n      pop\n        /* \"#utility.yul\":769:895   */\n      swap2\n      swap1\n      pop\n      jump\t// out\n        /* \"#utility.yul\":901:997   */\n    tag_69:\n        /* \"#utility.yul\":938:945   */\n      0x00\n        /* \"#utility.yul\":967:991   */\n      tag_103\n        /* \"#utility.yul\":985:990   */\n      dup3\n        /* \"#utility.yul\":967:991   */\n      tag_68\n      jump\t// in\n    tag_103:\n        /* \"#utility.yul\":956:991   */\n      swap1\n      pop\n        /* \"#utility.yul\":901:997   */\n      swap2\n      swap1\n      pop\n      jump\t// out\n        /* \"#utility.yul\":1003:1125   */\n    tag_70:\n        /* \"#utility.yul\":1076:1100   */\n      tag_105\n        /* \"#utility.yul\":1094:1099   */\n      dup2\n        /* \"#utility.yul\":1076:1100   */\n      tag_69\n      jump\t// in\n    tag_105:\n        /* \"#utility.yul\":1069:1074   */\n      dup2\n        /* \"#utility.yul\":1066:1101   */\n      eq\n        /* \"#utility.yul\":1056:1119   */\n      tag_106\n      jumpi\n        /* \"#utility.yul\":1115:1116   */\n      0x00\n        /* \"#utility.yul\":1112:1113   */\n      0x00\n        /* \"#utility.yul\":1105:1117   */\n      revert\n        /* \"#utility.yul\":1056:1119   */\n    tag_106:\n        /* \"#utility.yul\":1003:1125   */\n      pop\n      jump\t// out\n        /* \"#utility.yul\":1131:1270   */\n    tag_71:\n        /* \"#utility.yul\":1177:1182   */\n      0x00\n        /* \"#utility.yul\":1215:1221   */\n      dup2\n        /* \"#utility.yul\":1202:1222   */\n      calldataload\n        /* \"#utility.yul\":1193:1222   */\n      swap1\n      pop\n        /* \"#utility.yul\":1231:1264   */\n      tag_108\n        /* \"#utility.yul\":1258:1263   */\n      dup2\n        /* \"#utility.yul\":1231:1264   */\n      tag_70\n      jump\t// in\n    tag_108:\n        /* \"#utility.yul\":1131:1270   */\n      swap3\n      swap2\n      pop\n      pop\n      jump\t// out\n        /* \"#utility.yul\":1276:1605   */\n    tag_18:\n        /* \"#utility.yul\":1335:1341   */\n      0x00\n        /* \"#utility.yul\":1384:1386   */\n      0x20\n        /* \"#utility.yul\":1372:1381   */\n      dup3\n        /* \"#utility.yul\":1363:1370   */\n      dup5\n        /* \"#utility.yul\":1359:1382   */\n      sub\n        /* \"#utility.yul\":1355:1387   */\n      slt\n        /* \"#utility.yul\":1352:1471   */\n      iszero\n      tag_110\n      jumpi\n        /* \"#utility.yul\":1390:1469   */\n      tag_111\n      tag_66\n      jump\t// in\n    tag_111:\n        /* \"#utility.yul\":1352:1471   */\n    tag_110:\n        /* \"#utility.yul\":1510:1511   */\n      0x00\n        /* \"#utility.yul\":1535:1588   */\n      tag_112\n        /* \"#utility.yul\":1580:1587   */\n      dup5\n        /* \"#utility.yul\":1571:1577   */\n      dup3\n        /* \"#utility.yul\":1560:1569   */\n      dup6\n        /* \"#utility.yul\":1556:1578   */\n      add\n        /* \"#utility.yul\":1535:1588   */\n      tag_71\n      jump\t// in\n    tag_112:\n        /* \"#utility.yul\":1525:1588   */\n      swap2\n      pop\n        /* \"#utility.yul\":1481:1598   */\n      pop\n        /* \"#utility.yul\":1276:1605   */\n      swap3\n      swap2\n      pop\n      pop\n      jump\t// out\n        /* \"#utility.yul\":1611:1725   */\n    tag_72:\n        /* \"#utility.yul\":1678:1684   */\n      0x00\n        /* \"#utility.yul\":1712:1717   */\n      dup2\n        /* \"#utility.yul\":1706:1718   */\n      mload\n        /* \"#utility.yul\":1696:1718   */\n      swap1\n      pop\n        /* \"#utility.yul\":1611:1725   */\n      swap2\n      swap1\n      pop\n      jump\t// out\n        /* \"#utility.yul\":1731:1915   */\n    tag_73:\n        /* \"#utility.yul\":1830:1841   */\n      0x00\n        /* \"#utility.yul\":1864:1870   */\n      dup3\n        /* \"#utility.yul\":1859:1862   */\n      dup3\n        /* \"#utility.yul\":1852:1871   */\n      mstore\n        /* \"#utility.yul\":1904:1908   */\n      0x20\n        /* \"#utility.yul\":1899:1902   */\n      dup3\n        /* \"#utility.yul\":1895:1909   */\n      add\n        /* \"#utility.yul\":1880:1909   */\n      swap1\n      pop\n        /* \"#utility.yul\":1731:1915   */\n      swap3\n      swap2\n      pop\n      pop\n      jump\t// out\n        /* \"#utility.yul\":1921:2053   */\n    tag_74:\n        /* \"#utility.yul\":1988:1992   */\n      0x00\n        /* \"#utility.yul\":2011:2014   */\n      dup2\n        /* \"#utility.yul\":2003:2014   */\n      swap1\n      pop\n        /* \"#utility.yul\":2041:2045   */\n      0x20\n        /* \"#utility.yul\":2036:2039   */\n      dup3\n        /* \"#utility.yul\":2032:2046   */\n      add\n        /* \"#utility.yul\":2024:2046   */\n      swap1\n      pop\n        /* \"#utility.yul\":1921:2053   */\n      swap2\n      swap1\n      pop\n      jump\t// out\n        /* \"#utility.yul\":2059:2167   */\n    tag_75:\n        /* \"#utility.yul\":2136:2160   */\n      tag_117\n        /* \"#utility.yul\":2154:2159   */\n      dup2\n        /* \"#utility.yul\":2136:2160   */\n      tag_69\n      jump\t// in\n    tag_117:\n        /* \"#utility.yul\":2131:2134   */\n      dup3\n        /* \"#utility.yul\":2124:2161   */\n      mstore\n        /* \"#utility.yul\":2059:2167   */\n      pop\n      pop\n      jump\t// out\n        /* \"#utility.yul\":2173:2352   */\n    tag_76:\n        /* \"#utility.yul\":2242:2252   */\n      0x00\n        /* \"#utility.yul\":2263:2309   */\n      tag_119\n        /* \"#utility.yul\":2305:2308   */\n      dup4\n        /* \"#utility.yul\":2297:2303   */\n      dup4\n        /* \"#utility.yul\":2263:2309   */\n      tag_75\n      jump\t// in\n    tag_119:\n        /* \"#utility.yul\":2341:2345   */\n      0x20\n        /* \"#utility.yul\":2336:2339   */\n      dup4\n        /* \"#utility.yul\":2332:2346   */\n      add\n        /* \"#utility.yul\":2318:2346   */\n      swap1\n      pop\n        /* \"#utility.yul\":2173:2352   */\n      swap3\n      swap2\n      pop\n      pop\n      jump\t// out\n        /* \"#utility.yul\":2358:2471   */\n    tag_77:\n        /* \"#utility.yul\":2428:2432   */\n      0x00\n        /* \"#utility.yul\":2460:2464   */\n      0x20\n        /* \"#utility.yul\":2455:2458   */\n      dup3\n        /* \"#utility.yul\":2451:2465   */\n      add\n        /* \"#utility.yul\":2443:2465   */\n      swap1\n      pop\n        /* \"#utility.yul\":2358:2471   */\n      swap2\n      swap1\n      pop\n      jump\t// out\n        /* \"#utility.yul\":2507:3239   */\n    tag_78:\n        /* \"#utility.yul\":2626:2629   */\n      0x00\n        /* \"#utility.yul\":2655:2709   */\n      tag_122\n        /* \"#utility.yul\":2703:2708   */\n      dup3\n        /* \"#utility.yul\":2655:2709   */\n      tag_72\n      jump\t// in\n    tag_122:\n        /* \"#utility.yul\":2725:2811   */\n      tag_123\n        /* \"#utility.yul\":2804:2810   */\n      dup2\n        /* \"#utility.yul\":2799:2802   */\n      dup6\n        /* \"#utility.yul\":2725:2811   */\n      tag_73\n      jump\t// in\n    tag_123:\n        /* \"#utility.yul\":2718:2811   */\n      swap4\n      pop\n        /* \"#utility.yul\":2835:2891   */\n      tag_124\n        /* \"#utility.yul\":2885:2890   */\n      dup4\n        /* \"#utility.yul\":2835:2891   */\n      tag_74\n      jump\t// in\n    tag_124:\n        /* \"#utility.yul\":2914:2921   */\n      dup1\n        /* \"#utility.yul\":2945:2946   */\n      0x00\n        /* \"#utility.yul\":2930:3214   */\n    tag_125:\n        /* \"#utility.yul\":2955:2961   */\n      dup4\n        /* \"#utility.yul\":2952:2953   */\n      dup2\n        /* \"#utility.yul\":2949:2962   */\n      lt\n        /* \"#utility.yul\":2930:3214   */\n      iszero\n      tag_127\n      jumpi\n        /* \"#utility.yul\":3031:3037   */\n      dup2\n        /* \"#utility.yul\":3025:3038   */\n      mload\n        /* \"#utility.yul\":3058:3121   */\n      tag_128\n        /* \"#utility.yul\":3117:3120   */\n      dup9\n        /* \"#utility.yul\":3102:3115   */\n      dup3\n        /* \"#utility.yul\":3058:3121   */\n      tag_76\n      jump\t// in\n    tag_128:\n        /* \"#utility.yul\":3051:3121   */\n      swap8\n      pop\n        /* \"#utility.yul\":3144:3204   */\n      tag_129\n        /* \"#utility.yul\":3197:3203   */\n      dup4\n        /* \"#utility.yul\":3144:3204   */\n      tag_77\n      jump\t// in\n    tag_129:\n        /* \"#utility.yul\":3134:3204   */\n      swap3\n      pop\n        /* \"#utility.yul\":2990:3214   */\n      pop\n        /* \"#utility.yul\":2977:2978   */\n      0x01\n        /* \"#utility.yul\":2974:2975   */\n      dup2\n        /* \"#utility.yul\":2970:2979   */\n      add\n        /* \"#utility.yul\":2965:2979   */\n      swap1\n      pop\n        /* \"#utility.yul\":2930:3214   */\n      jump(tag_125)\n    tag_127:\n        /* \"#utility.yul\":2934:2948   */\n      pop\n        /* \"#utility.yul\":3230:3233   */\n      dup6\n        /* \"#utility.yul\":3223:3233   */\n      swap4\n      pop\n        /* \"#utility.yul\":2631:3239   */\n      pop\n      pop\n      pop\n        /* \"#utility.yul\":2507:3239   */\n      swap3\n      swap2\n      pop\n      pop\n      jump\t// out\n        /* \"#utility.yul\":3245:3618   */\n    tag_25:\n        /* \"#utility.yul\":3388:3392   */\n      0x00\n        /* \"#utility.yul\":3426:3428   */\n      0x20\n        /* \"#utility.yul\":3415:3424   */\n      dup3\n        /* \"#utility.yul\":3411:3429   */\n      add\n        /* \"#utility.yul\":3403:3429   */\n      swap1\n      pop\n        /* \"#utility.yul\":3475:3484   */\n      dup2\n        /* \"#utility.yul\":3469:3473   */\n      dup2\n        /* \"#utility.yul\":3465:3485   */\n      sub\n        /* \"#utility.yul\":3461:3462   */\n      0x00\n        /* \"#utility.yul\":3450:3459   */\n      dup4\n        /* \"#utility.yul\":3446:3463   */\n      add\n        /* \"#utility.yul\":3439:3486   */\n      mstore\n        /* \"#utility.yul\":3503:3611   */\n      tag_131\n        /* \"#utility.yul\":3606:3610   */\n      dup2\n        /* \"#utility.yul\":3597:3603   */\n      dup5\n        /* \"#utility.yul\":3503:3611   */\n      tag_78\n      jump\t// in\n    tag_131:\n        /* \"#utility.yul\":3495:3611   */\n      swap1\n      pop\n        /* \"#utility.yul\":3245:3618   */\n      swap3\n      swap2\n      pop\n      pop\n      jump\t// out\n        /* \"#utility.yul\":3624:3804   */\n    tag_34:\n        /* \"#utility.yul\":3672:3749   */\n      0x4e487b7100000000000000000000000000000000000000000000000000000000\n        /* \"#utility.yul\":3669:3670   */\n      0x00\n        /* \"#utility.yul\":3662:3750   */\n      mstore\n        /* \"#utility.yul\":3769:3773   */\n      0x32\n        /* \"#utility.yul\":3766:3767   */\n      0x04\n        /* \"#utility.yul\":3759:3774   */\n      mstore\n        /* \"#utility.yul\":3793:3797   */\n      0x24\n        /* \"#utility.yul\":3790:3791   */\n      0x00\n        /* \"#utility.yul\":3783:3798   */\n      revert\n        /* \"#utility.yul\":3810:3990   */\n    tag_79:\n        /* \"#utility.yul\":3858:3935   */\n      0x4e487b7100000000000000000000000000000000000000000000000000000000\n        /* \"#utility.yul\":3855:3856   */\n      0x00\n        /* \"#utility.yul\":3848:3936   */\n      mstore\n        /* \"#utility.yul\":3955:3959   */\n      0x11\n        /* \"#utility.yul\":3952:3953   */\n      0x04\n        /* \"#utility.yul\":3945:3960   */\n      mstore\n        /* \"#utility.yul\":3979:3983   */\n      0x24\n        /* \"#utility.yul\":3976:3977   */\n      0x00\n        /* \"#utility.yul\":3969:3984   */\n      revert\n        /* \"#utility.yul\":3996:4187   */\n    tag_37:\n        /* \"#utility.yul\":4036:4039   */\n      0x00\n        /* \"#utility.yul\":4055:4075   */\n      tag_135\n        /* \"#utility.yul\":4073:4074   */\n      dup3\n        /* \"#utility.yul\":4055:4075   */\n      tag_63\n      jump\t// in\n    tag_135:\n        /* \"#utility.yul\":4050:4075   */\n      swap2\n      pop\n        /* \"#utility.yul\":4089:4109   */\n      tag_136\n        /* \"#utility.yul\":4107:4108   */\n      dup4\n        /* \"#utility.yul\":4089:4109   */\n      tag_63\n      jump\t// in\n    tag_136:\n        /* \"#utility.yul\":4084:4109   */\n      swap3\n      pop\n        /* \"#utility.yul\":4132:4133   */\n      dup3\n        /* \"#utility.yul\":4129:4130   */\n      dup3\n        /* \"#utility.yul\":4125:4134   */\n      add\n        /* \"#utility.yul\":4118:4134   */\n      swap1\n      pop\n        /* \"#utility.yul\":4153:4156   */\n      dup1\n        /* \"#utility.yul\":4150:4151   */\n      dup3\n        /* \"#utility.yul\":4147:4157   */\n      gt\n        /* \"#utility.yul\":4144:4180   */\n      iszero\n      tag_137\n      jumpi\n        /* \"#utility.yul\":4160:4178   */\n      tag_138\n      tag_79\n      jump\t// in\n    tag_138:\n        /* \"#utility.yul\":4144:4180   */\n    tag_137:\n        /* \"#utility.yul\":3996:4187   */\n      swap3\n      swap2\n      pop\n      pop\n      jump\t// out\n        /* \"#utility.yul\":4193:4362   */\n    tag_80:\n        /* \"#utility.yul\":4277:4288   */\n      0x00\n        /* \"#utility.yul\":4311:4317   */\n      dup3\n        /* \"#utility.yul\":4306:4309   */\n      dup3\n        /* \"#utility.yul\":4299:4318   */\n      mstore\n        /* \"#utility.yul\":4351:4355   */\n      0x20\n        /* \"#utility.yul\":4346:4349   */\n      dup3\n        /* \"#utility.yul\":4342:4356   */\n      add\n        /* \"#utility.yul\":4327:4356   */\n      swap1\n      pop\n        /* \"#utility.yul\":4193:4362   */\n      swap3\n      swap2\n      pop\n      pop\n      jump\t// out\n        /* \"#utility.yul\":4368:4542   */\n    tag_81:\n        /* \"#utility.yul\":4508:4534   */\n      0x4e6f7420656e6f75676820455448207761732073656e742e0000000000000000\n        /* \"#utility.yul\":4504:4505   */\n      0x00\n        /* \"#utility.yul\":4496:4502   */\n      dup3\n        /* \"#utility.yul\":4492:4506   */\n      add\n        /* \"#utility.yul\":4485:4535   */\n      mstore\n        /* \"#utility.yul\":4368:4542   */\n      pop\n      jump\t// out\n        /* \"#utility.yul\":4548:4914   */\n    tag_82:\n        /* \"#utility.yul\":4690:4693   */\n      0x00\n        /* \"#utility.yul\":4711:4778   */\n      tag_142\n        /* \"#utility.yul\":4775:4777   */\n      0x18\n        /* \"#utility.yul\":4770:4773   */\n      dup4\n        /* \"#utility.yul\":4711:4778   */\n      tag_80\n      jump\t// in\n    tag_142:\n        /* \"#utility.yul\":4704:4778   */\n      swap2\n      pop\n        /* \"#utility.yul\":4787:4880   */\n      tag_143\n        /* \"#utility.yul\":4876:4879   */\n      dup3\n        /* \"#utility.yul\":4787:4880   */\n      tag_81\n      jump\t// in\n    tag_143:\n        /* \"#utility.yul\":4905:4907   */\n      0x20\n        /* \"#utility.yul\":4900:4903   */\n      dup3\n        /* \"#utility.yul\":4896:4908   */\n      add\n        /* \"#utility.yul\":4889:4908   */\n      swap1\n      pop\n        /* \"#utility.yul\":4548:4914   */\n      swap2\n      swap1\n      pop\n      jump\t// out\n        /* \"#utility.yul\":4920:5339   */\n    tag_46:\n        /* \"#utility.yul\":5086:5090   */\n      0x00\n        /* \"#utility.yul\":5124:5126   */\n      0x20\n        /* \"#utility.yul\":5113:5122   */\n      dup3\n        /* \"#utility.yul\":5109:5127   */\n      add\n        /* \"#utility.yul\":5101:5127   */\n      swap1\n      pop\n        /* \"#utility.yul\":5173:5182   */\n      dup2\n        /* \"#utility.yul\":5167:5171   */\n      dup2\n        /* \"#utility.yul\":5163:5183   */\n      sub\n        /* \"#utility.yul\":5159:5160   */\n      0x00\n        /* \"#utility.yul\":5148:5157   */\n      dup4\n        /* \"#utility.yul\":5144:5161   */\n      add\n        /* \"#utility.yul\":5137:5184   */\n      mstore\n        /* \"#utility.yul\":5201:5332   */\n      tag_145\n        /* \"#utility.yul\":5327:5331   */\n      dup2\n        /* \"#utility.yul\":5201:5332   */\n      tag_82\n      jump\t// in\n    tag_145:\n        /* \"#utility.yul\":5193:5332   */\n      swap1\n      pop\n        /* \"#utility.yul\":4920:5339   */\n      swap2\n      swap1\n      pop\n      jump\t// out\n        /* \"#utility.yul\":5345:5755   */\n    tag_53:\n        /* \"#utility.yul\":5385:5392   */\n      0x00\n        /* \"#utility.yul\":5408:5428   */\n      tag_147\n        /* \"#utility.yul\":5426:5427   */\n      dup3\n        /* \"#utility.yul\":5408:5428   */\n      tag_63\n      jump\t// in\n    tag_147:\n        /* \"#utility.yul\":5403:5428   */\n      swap2\n      pop\n        /* \"#utility.yul\":5442:5462   */\n      tag_148\n        /* \"#utility.yul\":5460:5461   */\n      dup4\n        /* \"#utility.yul\":5442:5462   */\n      tag_63\n      jump\t// in\n    tag_148:\n        /* \"#utility.yul\":5437:5462   */\n      swap3\n      pop\n        /* \"#utility.yul\":5497:5498   */\n      dup3\n        /* \"#utility.yul\":5494:5495   */\n      dup3\n        /* \"#utility.yul\":5490:5499   */\n      mul\n        /* \"#utility.yul\":5519:5549   */\n      tag_149\n        /* \"#utility.yul\":5537:5548   */\n      dup2\n        /* \"#utility.yul\":5519:5549   */\n      tag_63\n      jump\t// in\n    tag_149:\n        /* \"#utility.yul\":5508:5549   */\n      swap2\n      pop\n        /* \"#utility.yul\":5698:5699   */\n      dup3\n        /* \"#utility.yul\":5689:5696   */\n      dup3\n        /* \"#utility.yul\":5685:5700   */\n      div\n        /* \"#utility.yul\":5682:5683   */\n      dup5\n        /* \"#utility.yul\":5679:5701   */\n      eq\n        /* \"#utility.yul\":5659:5660   */\n      dup4\n        /* \"#utility.yul\":5652:5661   */\n      iszero\n        /* \"#utility.yul\":5632:5715   */\n      or\n        /* \"#utility.yul\":5609:5748   */\n      tag_150\n      jumpi\n        /* \"#utility.yul\":5728:5746   */\n      tag_151\n      tag_79\n      jump\t// in\n    tag_151:\n        /* \"#utility.yul\":5609:5748   */\n    tag_150:\n        /* \"#utility.yul\":5393:5755   */\n      pop\n        /* \"#utility.yul\":5345:5755   */\n      swap3\n      swap2\n      pop\n      pop\n      jump\t// out\n        /* \"#utility.yul\":5761:5941   */\n    tag_83:\n        /* \"#utility.yul\":5809:5886   */\n      0x4e487b7100000000000000000000000000000000000000000000000000000000\n        /* \"#utility.yul\":5806:5807   */\n      0x00\n        /* \"#utility.yul\":5799:5887   */\n      mstore\n        /* \"#utility.yul\":5906:5910   */\n      0x12\n        /* \"#utility.yul\":5903:5904   */\n      0x04\n        /* \"#utility.yul\":5896:5911   */\n      mstore\n        /* \"#utility.yul\":5930:5934   */\n      0x24\n        /* \"#utility.yul\":5927:5928   */\n      0x00\n        /* \"#utility.yul\":5920:5935   */\n      revert\n        /* \"#utility.yul\":5947:6132   */\n    tag_55:\n        /* \"#utility.yul\":5987:5988   */\n      0x00\n        /* \"#utility.yul\":6004:6024   */\n      tag_154\n        /* \"#utility.yul\":6022:6023   */\n      dup3\n        /* \"#utility.yul\":6004:6024   */\n      tag_63\n      jump\t// in\n    tag_154:\n        /* \"#utility.yul\":5999:6024   */\n      swap2\n      pop\n        /* \"#utility.yul\":6038:6058   */\n      tag_155\n        /* \"#utility.yul\":6056:6057   */\n      dup4\n        /* \"#utility.yul\":6038:6058   */\n      tag_63\n      jump\t// in\n    tag_155:\n        /* \"#utility.yul\":6033:6058   */\n      swap3\n      pop\n        /* \"#utility.yul\":6077:6078   */\n      dup3\n        /* \"#utility.yul\":6067:6102   */\n      tag_156\n      jumpi\n        /* \"#utility.yul\":6082:6100   */\n      tag_157\n      tag_83\n      jump\t// in\n    tag_157:\n        /* \"#utility.yul\":6067:6102   */\n    tag_156:\n        /* \"#utility.yul\":6124:6125   */\n      dup3\n        /* \"#utility.yul\":6121:6122   */\n      dup3\n        /* \"#utility.yul\":6117:6126   */\n      div\n        /* \"#utility.yul\":6112:6126   */\n      swap1\n      pop\n        /* \"#utility.yul\":5947:6132   */\n      swap3\n      swap2\n      pop\n      pop\n      jump\t// out\n        /* \"#utility.yul\":6138:6243   */\n    tag_84:\n        /* \"#utility.yul\":6174:6181   */\n      0x00\n        /* \"#utility.yul\":6214:6236   */\n      0xffffffffffffffffffff\n        /* \"#utility.yul\":6207:6212   */\n      dup3\n        /* \"#utility.yul\":6203:6237   */\n      and\n        /* \"#utility.yul\":6192:6237   */\n      swap1\n      pop\n        /* \"#utility.yul\":6138:6243   */\n      swap2\n      swap1\n      pop\n      jump\t// out\n        /* \"#utility.yul\":6249:6369   */\n    tag_85:\n        /* \"#utility.yul\":6321:6344   */\n      tag_160\n        /* \"#utility.yul\":6338:6343   */\n      dup2\n        /* \"#utility.yul\":6321:6344   */\n      tag_84\n      jump\t// in\n    tag_160:\n        /* \"#utility.yul\":6314:6319   */\n      dup2\n        /* \"#utility.yul\":6311:6345   */\n      eq\n        /* \"#utility.yul\":6301:6363   */\n      tag_161\n      jumpi\n        /* \"#utility.yul\":6359:6360   */\n      0x00\n        /* \"#utility.yul\":6356:6357   */\n      0x00\n        /* \"#utility.yul\":6349:6361   */\n      revert\n        /* \"#utility.yul\":6301:6363   */\n    tag_161:\n        /* \"#utility.yul\":6249:6369   */\n      pop\n      jump\t// out\n        /* \"#utility.yul\":6375:6516   */\n    tag_86:\n        /* \"#utility.yul\":6431:6436   */\n      0x00\n        /* \"#utility.yul\":6462:6468   */\n      dup2\n        /* \"#utility.yul\":6456:6469   */\n      mload\n        /* \"#utility.yul\":6447:6469   */\n      swap1\n      pop\n        /* \"#utility.yul\":6478:6510   */\n      tag_163\n        /* \"#utility.yul\":6504:6509   */\n      dup2\n        /* \"#utility.yul\":6478:6510   */\n      tag_85\n      jump\t// in\n    tag_163:\n        /* \"#utility.yul\":6375:6516   */\n      swap3\n      swap2\n      pop\n      pop\n      jump\t// out\n        /* \"#utility.yul\":6522:6598   */\n    tag_87:\n        /* \"#utility.yul\":6558:6565   */\n      0x00\n        /* \"#utility.yul\":6587:6592   */\n      dup2\n        /* \"#utility.yul\":6576:6592   */\n      swap1\n      pop\n        /* \"#utility.yul\":6522:6598   */\n      swap2\n      swap1\n      pop\n      jump\t// out\n        /* \"#utility.yul\":6604:6724   */\n    tag_88:\n        /* \"#utility.yul\":6676:6699   */\n      tag_166\n        /* \"#utility.yul\":6693:6698   */\n      dup2\n        /* \"#utility.yul\":6676:6699   */\n      tag_87\n      jump\t// in\n    tag_166:\n        /* \"#utility.yul\":6669:6674   */\n      dup2\n        /* \"#utility.yul\":6666:6700   */\n      eq\n        /* \"#utility.yul\":6656:6718   */\n      tag_167\n      jumpi\n        /* \"#utility.yul\":6714:6715   */\n      0x00\n        /* \"#utility.yul\":6711:6712   */\n      0x00\n        /* \"#utility.yul\":6704:6716   */\n      revert\n        /* \"#utility.yul\":6656:6718   */\n    tag_167:\n        /* \"#utility.yul\":6604:6724   */\n      pop\n      jump\t// out\n        /* \"#utility.yul\":6730:6871   */\n    tag_89:\n        /* \"#utility.yul\":6786:6791   */\n      0x00\n        /* \"#utility.yul\":6817:6823   */\n      dup2\n        /* \"#utility.yul\":6811:6824   */\n      mload\n        /* \"#utility.yul\":6802:6824   */\n      swap1\n      pop\n        /* \"#utility.yul\":6833:6865   */\n      tag_169\n        /* \"#utility.yul\":6859:6864   */\n      dup2\n        /* \"#utility.yul\":6833:6865   */\n      tag_88\n      jump\t// in\n    tag_169:\n        /* \"#utility.yul\":6730:6871   */\n      swap3\n      swap2\n      pop\n      pop\n      jump\t// out\n        /* \"#utility.yul\":6877:6999   */\n    tag_90:\n        /* \"#utility.yul\":6950:6974   */\n      tag_171\n        /* \"#utility.yul\":6968:6973   */\n      dup2\n        /* \"#utility.yul\":6950:6974   */\n      tag_63\n      jump\t// in\n    tag_171:\n        /* \"#utility.yul\":6943:6948   */\n      dup2\n        /* \"#utility.yul\":6940:6975   */\n      eq\n        /* \"#utility.yul\":6930:6993   */\n      tag_172\n      jumpi\n        /* \"#utility.yul\":6989:6990   */\n      0x00\n        /* \"#utility.yul\":6986:6987   */\n      0x00\n        /* \"#utility.yul\":6979:6991   */\n      revert\n        /* \"#utility.yul\":6930:6993   */\n    tag_172:\n        /* \"#utility.yul\":6877:6999   */\n      pop\n      jump\t// out\n        /* \"#utility.yul\":7005:7148   */\n    tag_91:\n        /* \"#utility.yul\":7062:7067   */\n      0x00\n        /* \"#utility.yul\":7093:7099   */\n      dup2\n        /* \"#utility.yul\":7087:7100   */\n      mload\n        /* \"#utility.yul\":7078:7100   */\n      swap1\n      pop\n        /* \"#utility.yul\":7109:7142   */\n      tag_174\n        /* \"#utility.yul\":7136:7141   */\n      dup2\n        /* \"#utility.yul\":7109:7142   */\n      tag_90\n      jump\t// in\n    tag_174:\n        /* \"#utility.yul\":7005:7148   */\n      swap3\n      swap2\n      pop\n      pop\n      jump\t// out\n        /* \"#utility.yul\":7154:8125   */\n    tag_60:\n        /* \"#utility.yul\":7257:7263   */\n      0x00\n        /* \"#utility.yul\":7265:7271   */\n      0x00\n        /* \"#utility.yul\":7273:7279   */\n      0x00\n        /* \"#utility.yul\":7281:7287   */\n      0x00\n        /* \"#utility.yul\":7289:7295   */\n      0x00\n        /* \"#utility.yul\":7338:7341   */\n      0xa0\n        /* \"#utility.yul\":7326:7335   */\n      dup7\n        /* \"#utility.yul\":7317:7324   */\n      dup9\n        /* \"#utility.yul\":7313:7336   */\n      sub\n        /* \"#utility.yul\":7309:7342   */\n      slt\n        /* \"#utility.yul\":7306:7426   */\n      iszero\n      tag_176\n      jumpi\n        /* \"#utility.yul\":7345:7424   */\n      tag_177\n      tag_66\n      jump\t// in\n    tag_177:\n        /* \"#utility.yul\":7306:7426   */\n    tag_176:\n        /* \"#utility.yul\":7465:7466   */\n      0x00\n        /* \"#utility.yul\":7490:7553   */\n      tag_178\n        /* \"#utility.yul\":7545:7552   */\n      dup9\n        /* \"#utility.yul\":7536:7542   */\n      dup3\n        /* \"#utility.yul\":7525:7534   */\n      dup10\n        /* \"#utility.yul\":7521:7543   */\n      add\n        /* \"#utility.yul\":7490:7553   */\n      tag_86\n      jump\t// in\n    tag_178:\n        /* \"#utility.yul\":7480:7553   */\n      swap6\n      pop\n        /* \"#utility.yul\":7436:7563   */\n      pop\n        /* \"#utility.yul\":7602:7604   */\n      0x20\n        /* \"#utility.yul\":7628:7691   */\n      tag_179\n        /* \"#utility.yul\":7683:7690   */\n      dup9\n        /* \"#utility.yul\":7674:7680   */\n      dup3\n        /* \"#utility.yul\":7663:7672   */\n      dup10\n        /* \"#utility.yul\":7659:7681   */\n      add\n        /* \"#utility.yul\":7628:7691   */\n      tag_89\n      jump\t// in\n    tag_179:\n        /* \"#utility.yul\":7618:7691   */\n      swap5\n      pop\n        /* \"#utility.yul\":7573:7701   */\n      pop\n        /* \"#utility.yul\":7740:7742   */\n      0x40\n        /* \"#utility.yul\":7766:7830   */\n      tag_180\n        /* \"#utility.yul\":7822:7829   */\n      dup9\n        /* \"#utility.yul\":7813:7819   */\n      dup3\n        /* \"#utility.yul\":7802:7811   */\n      dup10\n        /* \"#utility.yul\":7798:7820   */\n      add\n        /* \"#utility.yul\":7766:7830   */\n      tag_91\n      jump\t// in\n    tag_180:\n        /* \"#utility.yul\":7756:7830   */\n      swap4\n      pop\n        /* \"#utility.yul\":7711:7840   */\n      pop\n        /* \"#utility.yul\":7879:7881   */\n      0x60\n        /* \"#utility.yul\":7905:7969   */\n      tag_181\n        /* \"#utility.yul\":7961:7968   */\n      dup9\n        /* \"#utility.yul\":7952:7958   */\n      dup3\n        /* \"#utility.yul\":7941:7950   */\n      dup10\n        /* \"#utility.yul\":7937:7959   */\n      add\n        /* \"#utility.yul\":7905:7969   */\n      tag_91\n      jump\t// in\n    tag_181:\n        /* \"#utility.yul\":7895:7969   */\n      swap3\n      pop\n        /* \"#utility.yul\":7850:7979   */\n      pop\n        /* \"#utility.yul\":8018:8021   */\n      0x80\n        /* \"#utility.yul\":8045:8108   */\n      tag_182\n        /* \"#utility.yul\":8100:8107   */\n      dup9\n        /* \"#utility.yul\":8091:8097   */\n      dup3\n        /* \"#utility.yul\":8080:8089   */\n      dup10\n        /* \"#utility.yul\":8076:8098   */\n      add\n        /* \"#utility.yul\":8045:8108   */\n      tag_86\n      jump\t// in\n    tag_182:\n        /* \"#utility.yul\":8035:8108   */\n      swap2\n      pop\n        /* \"#utility.yul\":7989:8118   */\n      pop\n        /* \"#utility.yul\":7154:8125   */\n      swap3\n      swap6\n      pop\n      swap3\n      swap6\n      swap1\n      swap4\n      pop\n      jump\t// out\n        /* \"#utility.yul\":8131:8687   */\n    tag_62:\n        /* \"#utility.yul\":8170:8177   */\n      0x00\n        /* \"#utility.yul\":8193:8212   */\n      tag_184\n        /* \"#utility.yul\":8210:8211   */\n      dup3\n        /* \"#utility.yul\":8193:8212   */\n      tag_87\n      jump\t// in\n    tag_184:\n        /* \"#utility.yul\":8188:8212   */\n      swap2\n      pop\n        /* \"#utility.yul\":8226:8245   */\n      tag_185\n        /* \"#utility.yul\":8243:8244   */\n      dup4\n        /* \"#utility.yul\":8226:8245   */\n      tag_87\n      jump\t// in\n    tag_185:\n        /* \"#utility.yul\":8221:8245   */\n      swap3\n      pop\n        /* \"#utility.yul\":8280:8281   */\n      dup3\n        /* \"#utility.yul\":8277:8278   */\n      dup3\n        /* \"#utility.yul\":8273:8282   */\n      mul\n        /* \"#utility.yul\":8302:8331   */\n      tag_186\n        /* \"#utility.yul\":8319:8330   */\n      dup2\n        /* \"#utility.yul\":8302:8331   */\n      tag_87\n      jump\t// in\n    tag_186:\n        /* \"#utility.yul\":8291:8331   */\n      swap2\n      pop\n        /* \"#utility.yul\":8389:8455   */\n      0x8000000000000000000000000000000000000000000000000000000000000000\n        /* \"#utility.yul\":8386:8387   */\n      dup5\n        /* \"#utility.yul\":8383:8456   */\n      eq\n        /* \"#utility.yul\":8379:8380   */\n      0x00\n        /* \"#utility.yul\":8376:8377   */\n      dup5\n        /* \"#utility.yul\":8372:8381   */\n      slt\n        /* \"#utility.yul\":8368:8457   */\n      and\n        /* \"#utility.yul\":8365:8480   */\n      iszero\n      tag_187\n      jumpi\n        /* \"#utility.yul\":8460:8478   */\n      tag_188\n      tag_79\n      jump\t// in\n    tag_188:\n        /* \"#utility.yul\":8365:8480   */\n    tag_187:\n        /* \"#utility.yul\":8630:8631   */\n      dup3\n        /* \"#utility.yul\":8621:8628   */\n      dup3\n        /* \"#utility.yul\":8616:8632   */\n      sdiv\n        /* \"#utility.yul\":8613:8614   */\n      dup5\n        /* \"#utility.yul\":8610:8633   */\n      eq\n        /* \"#utility.yul\":8590:8591   */\n      dup4\n        /* \"#utility.yul\":8583:8592   */\n      iszero\n        /* \"#utility.yul\":8563:8647   */\n      or\n        /* \"#utility.yul\":8540:8680   */\n      tag_189\n      jumpi\n        /* \"#utility.yul\":8660:8678   */\n      tag_190\n      tag_79\n      jump\t// in\n    tag_190:\n        /* \"#utility.yul\":8540:8680   */\n    tag_189:\n        /* \"#utility.yul\":8178:8687   */\n      pop\n        /* \"#utility.yul\":8131:8687   */\n      swap3\n      swap2\n      pop\n      pop\n      jump\t// out\n\n    auxdata: 0xa2646970667358221220d948a18fbe18477bc3f8c9d7582e3dae5222cf6b381116c62302a02c47eccefe64736f6c634300081c0033\n}\n",
				"bytecode": {
					"linkReferences": {},
					"object": "6080604052674563918244f400005f553480156019575f5ffd5b5061091e806100275f395ff3fe608060405260043610610049575f3560e01c8063098de8201461004d5780633ccfd60b146100775780633e47d6f31461008d5780638edd6eb6146100c9578063b60d4288146100f3575b5f5ffd5b348015610058575f5ffd5b506100616100fd565b60405161006e9190610443565b60405180910390f35b348015610082575f5ffd5b5061008b610102565b005b348015610098575f5ffd5b506100b360048036038101906100ae91906104ba565b6101ad565b6040516100c09190610443565b60405180910390f35b3480156100d4575f5ffd5b506100dd6101c2565b6040516100ea919061059c565b60405180910390f35b6100fb61024d565b005b5f5481565b5f5f90505b6001805490508110156101aa575f60018281548110610129576101286105bc565b5b905f5260205f20015f9054906101000a900473ffffffffffffffffffffffffffffffffffffffff1690505f60025f8373ffffffffffffffffffffffffffffffffffffffff1673ffffffffffffffffffffffffffffffffffffffff1681526020019081526020015f2081905550506001816101a39190610616565b9050610107565b50565b6002602052805f5260405f205f915090505481565b6060600180548060200260200160405190810160405280929190818152602001828054801561024357602002820191905f5260205f20905b815f9054906101000a900473ffffffffffffffffffffffffffffffffffffffff1673ffffffffffffffffffffffffffffffffffffffff16815260200190600101908083116101fa575b5050505050905090565b5f546102583461034e565b1015610299576040517f08c379a0000000000000000000000000000000000000000000000000000000008152600401610290906106a3565b60405180910390fd5b600133908060018154018082558091505060019003905f5260205f20015f9091909190916101000a81548173ffffffffffffffffffffffffffffffffffffffff021916908373ffffffffffffffffffffffffffffffffffffffff1602179055503460025f3373ffffffffffffffffffffffffffffffffffffffff1673ffffffffffffffffffffffffffffffffffffffff1681526020019081526020015f205f8282546103459190610616565b92505081905550565b5f5f610358610386565b90505f670de0b6b3a7640000828561037091906106c1565b61037a919061072f565b90508092505050919050565b5f5f73694aa1769357215de4fac081bf1f309adc32530690505f8173ffffffffffffffffffffffffffffffffffffffff1663feaf968c6040518163ffffffff1660e01b815260040160a060405180830381865afa1580156103e9573d5f5f3e3d5ffd5b505050506040513d601f19601f8201168201806040525081019061040d91906107fb565b5050509150506402540be400816104249190610872565b9250505090565b5f819050919050565b61043d8161042b565b82525050565b5f6020820190506104565f830184610434565b92915050565b5f5ffd5b5f73ffffffffffffffffffffffffffffffffffffffff82169050919050565b5f61048982610460565b9050919050565b6104998161047f565b81146104a3575f5ffd5b50565b5f813590506104b481610490565b92915050565b5f602082840312156104cf576104ce61045c565b5b5f6104dc848285016104a6565b91505092915050565b5f81519050919050565b5f82825260208201905092915050565b5f819050602082019050919050565b6105178161047f565b82525050565b5f610528838361050e565b60208301905092915050565b5f602082019050919050565b5f61054a826104e5565b61055481856104ef565b935061055f836104ff565b805f5b8381101561058f578151610576888261051d565b975061058183610534565b925050600181019050610562565b5085935050505092915050565b5f6020820190508181035f8301526105b48184610540565b905092915050565b7f4e487b71000000000000000000000000000000000000000000000000000000005f52603260045260245ffd5b7f4e487b71000000000000000000000000000000000000000000000000000000005f52601160045260245ffd5b5f6106208261042b565b915061062b8361042b565b9250828201905080821115610643576106426105e9565b5b92915050565b5f82825260208201905092915050565b7f4e6f7420656e6f75676820455448207761732073656e742e00000000000000005f82015250565b5f61068d601883610649565b915061069882610659565b602082019050919050565b5f6020820190508181035f8301526106ba81610681565b9050919050565b5f6106cb8261042b565b91506106d68361042b565b92508282026106e48161042b565b915082820484148315176106fb576106fa6105e9565b5b5092915050565b7f4e487b71000000000000000000000000000000000000000000000000000000005f52601260045260245ffd5b5f6107398261042b565b91506107448361042b565b92508261075457610753610702565b5b828204905092915050565b5f69ffffffffffffffffffff82169050919050565b61077d8161075f565b8114610787575f5ffd5b50565b5f8151905061079881610774565b92915050565b5f819050919050565b6107b08161079e565b81146107ba575f5ffd5b50565b5f815190506107cb816107a7565b92915050565b6107da8161042b565b81146107e4575f5ffd5b50565b5f815190506107f5816107d1565b92915050565b5f5f5f5f5f60a086880312156108145761081361045c565b5b5f6108218882890161078a565b9550506020610832888289016107bd565b9450506040610843888289016107e7565b9350506060610854888289016107e7565b92505060806108658882890161078a565b9150509295509295909350565b5f61087c8261079e565b91506108878361079e565b92508282026108958161079e565b91507f800000000000000000000000000000000000000000000000000000000000000084145f841216156108cc576108cb6105e9565b5b82820584148315176108e1576108e06105e9565b5b509291505056fea2646970667358221220d948a18fbe18477bc3f8c9d7582e3dae5222cf6b381116c62302a02c47eccefe64736f6c634300081c0033",
					"opcodes": "PUSH1 0x80 PUSH1 0x40 MSTORE PUSH8 0x4563918244F40000 PUSH0 SSTORE CALLVALUE DUP1 ISZERO PUSH1 0x19 JUMPI PUSH0 PUSH0 REVERT JUMPDEST POP PUSH2 0x91E DUP1 PUSH2 0x27 PUSH0 CODECOPY PUSH0 RETURN INVALID PUSH1 0x80 PUSH1 0x40 MSTORE PUSH1 0x4 CALLDATASIZE LT PUSH2 0x49 JUMPI PUSH0 CALLDATALOAD PUSH1 0xE0 SHR DUP1 PUSH4 0x98DE820 EQ PUSH2 0x4D JUMPI DUP1 PUSH4 0x3CCFD60B EQ PUSH2 0x77 JUMPI DUP1 PUSH4 0x3E47D6F3 EQ PUSH2 0x8D JUMPI DUP1 PUSH4 0x8EDD6EB6 EQ PUSH2 0xC9 JUMPI DUP1 PUSH4 0xB60D4288 EQ PUSH2 0xF3 JUMPI JUMPDEST PUSH0 PUSH0 REVERT JUMPDEST CALLVALUE DUP1 ISZERO PUSH2 0x58 JUMPI PUSH0 PUSH0 REVERT JUMPDEST POP PUSH2 0x61 PUSH2 0xFD JUMP JUMPDEST PUSH1 0x40 MLOAD PUSH2 0x6E SWAP2 SWAP1 PUSH2 0x443 JUMP JUMPDEST PUSH1 0x40 MLOAD DUP1 SWAP2 SUB SWAP1 RETURN JUMPDEST CALLVALUE DUP1 ISZERO PUSH2 0x82 JUMPI PUSH0 PUSH0 REVERT JUMPDEST POP PUSH2 0x8B PUSH2 0x102 JUMP JUMPDEST STOP JUMPDEST CALLVALUE DUP1 ISZERO PUSH2 0x98 JUMPI PUSH0 PUSH0 REVERT JUMPDEST POP PUSH2 0xB3 PUSH1 0x4 DUP1 CALLDATASIZE SUB DUP2 ADD SWAP1 PUSH2 0xAE SWAP2 SWAP1 PUSH2 0x4BA JUMP JUMPDEST PUSH2 0x1AD JUMP JUMPDEST PUSH1 0x40 MLOAD PUSH2 0xC0 SWAP2 SWAP1 PUSH2 0x443 JUMP JUMPDEST PUSH1 0x40 MLOAD DUP1 SWAP2 SUB SWAP1 RETURN JUMPDEST CALLVALUE DUP1 ISZERO PUSH2 0xD4 JUMPI PUSH0 PUSH0 REVERT JUMPDEST POP PUSH2 0xDD PUSH2 0x1C2 JUMP JUMPDEST PUSH1 0x40 MLOAD PUSH2 0xEA SWAP2 SWAP1 PUSH2 0x59C JUMP JUMPDEST PUSH1 0x40 MLOAD DUP1 SWAP2 SUB SWAP1 RETURN JUMPDEST PUSH2 0xFB PUSH2 0x24D JUMP JUMPDEST STOP JUMPDEST PUSH0 SLOAD DUP2 JUMP JUMPDEST PUSH0 PUSH0 SWAP1 POP JUMPDEST PUSH1 0x1 DUP1 SLOAD SWAP1 POP DUP2 LT ISZERO PUSH2 0x1AA JUMPI PUSH0 PUSH1 0x1 DUP3 DUP2 SLOAD DUP2 LT PUSH2 0x129 JUMPI PUSH2 0x128 PUSH2 0x5BC JUMP JUMPDEST JUMPDEST SWAP1 PUSH0 MSTORE PUSH1 0x20 PUSH0 KECCAK256 ADD PUSH0 SWAP1 SLOAD SWAP1 PUSH2 0x100 EXP SWAP1 DIV PUSH20 0xFFFFFFFFFFFFFFFFFFFFFFFFFFFFFFFFFFFFFFFF AND SWAP1 POP PUSH0 PUSH1 0x2 PUSH0 DUP4 PUSH20 0xFFFFFFFFFFFFFFFFFFFFFFFFFFFFFFFFFFFFFFFF AND PUSH20 0xFFFFFFFFFFFFFFFFFFFFFFFFFFFFFFFFFFFFFFFF AND DUP2 MSTORE PUSH1 0x20 ADD SWAP1 DUP2 MSTORE PUSH1 0x20 ADD PUSH0 KECCAK256 DUP2 SWAP1 SSTORE POP POP PUSH1 0x1 DUP2 PUSH2 0x1A3 SWAP2 SWAP1 PUSH2 0x616 JUMP JUMPDEST SWAP1 POP PUSH2 0x107 JUMP JUMPDEST POP JUMP JUMPDEST PUSH1 0x2 PUSH1 0x20 MSTORE DUP1 PUSH0 MSTORE PUSH1 0x40 PUSH0 KECCAK256 PUSH0 SWAP2 POP SWAP1 POP SLOAD DUP2 JUMP JUMPDEST PUSH1 0x60 PUSH1 0x1 DUP1 SLOAD DUP1 PUSH1 0x20 MUL PUSH1 0x20 ADD PUSH1 0x40 MLOAD SWAP1 DUP2 ADD PUSH1 0x40 MSTORE DUP1 SWAP3 SWAP2 SWAP1 DUP2 DUP2 MSTORE PUSH1 0x20 ADD DUP3 DUP1 SLOAD DUP1 ISZERO PUSH2 0x243 JUMPI PUSH1 0x20 MUL DUP3 ADD SWAP2 SWAP1 PUSH0 MSTORE PUSH1 0x20 PUSH0 KECCAK256 SWAP1 JUMPDEST DUP2 PUSH0 SWAP1 SLOAD SWAP1 PUSH2 0x100 EXP SWAP1 DIV PUSH20 0xFFFFFFFFFFFFFFFFFFFFFFFFFFFFFFFFFFFFFFFF AND PUSH20 0xFFFFFFFFFFFFFFFFFFFFFFFFFFFFFFFFFFFFFFFF AND DUP2 MSTORE PUSH1 0x20 ADD SWAP1 PUSH1 0x1 ADD SWAP1 DUP1 DUP4 GT PUSH2 0x1FA JUMPI JUMPDEST POP POP POP POP POP SWAP1 POP SWAP1 JUMP JUMPDEST PUSH0 SLOAD PUSH2 0x258 CALLVALUE PUSH2 0x34E JUMP JUMPDEST LT ISZERO PUSH2 0x299 JUMPI PUSH1 0x40 MLOAD PUSH32 0x8C379A000000000000000000000000000000000000000000000000000000000 DUP2 MSTORE PUSH1 0x4 ADD PUSH2 0x290 SWAP1 PUSH2 0x6A3 JUMP JUMPDEST PUSH1 0x40 MLOAD DUP1 SWAP2 SUB SWAP1 REVERT JUMPDEST PUSH1 0x1 CALLER SWAP1 DUP1 PUSH1 0x1 DUP2 SLOAD ADD DUP1 DUP3 SSTORE DUP1 SWAP2 POP POP PUSH1 0x1 SWAP1 SUB SWAP1 PUSH0 MSTORE PUSH1 0x20 PUSH0 KECCAK256 ADD PUSH0 SWAP1 SWAP2 SWAP1 SWAP2 SWAP1 SWAP2 PUSH2 0x100 EXP DUP2 SLOAD DUP2 PUSH20 0xFFFFFFFFFFFFFFFFFFFFFFFFFFFFFFFFFFFFFFFF MUL NOT AND SWAP1 DUP4 PUSH20 0xFFFFFFFFFFFFFFFFFFFFFFFFFFFFFFFFFFFFFFFF AND MUL OR SWAP1 SSTORE POP CALLVALUE PUSH1 0x2 PUSH0 CALLER PUSH20 0xFFFFFFFFFFFFFFFFFFFFFFFFFFFFFFFFFFFFFFFF AND PUSH20 0xFFFFFFFFFFFFFFFFFFFFFFFFFFFFFFFFFFFFFFFF AND DUP2 MSTORE PUSH1 0x20 ADD SWAP1 DUP2 MSTORE PUSH1 0x20 ADD PUSH0 KECCAK256 PUSH0 DUP3 DUP3 SLOAD PUSH2 0x345 SWAP2 SWAP1 PUSH2 0x616 JUMP JUMPDEST SWAP3 POP POP DUP2 SWAP1 SSTORE POP JUMP JUMPDEST PUSH0 PUSH0 PUSH2 0x358 PUSH2 0x386 JUMP JUMPDEST SWAP1 POP PUSH0 PUSH8 0xDE0B6B3A7640000 DUP3 DUP6 PUSH2 0x370 SWAP2 SWAP1 PUSH2 0x6C1 JUMP JUMPDEST PUSH2 0x37A SWAP2 SWAP1 PUSH2 0x72F JUMP JUMPDEST SWAP1 POP DUP1 SWAP3 POP POP POP SWAP2 SWAP1 POP JUMP JUMPDEST PUSH0 PUSH0 PUSH20 0x694AA1769357215DE4FAC081BF1F309ADC325306 SWAP1 POP PUSH0 DUP2 PUSH20 0xFFFFFFFFFFFFFFFFFFFFFFFFFFFFFFFFFFFFFFFF AND PUSH4 0xFEAF968C PUSH1 0x40 MLOAD DUP2 PUSH4 0xFFFFFFFF AND PUSH1 0xE0 SHL DUP2 MSTORE PUSH1 0x4 ADD PUSH1 0xA0 PUSH1 0x40 MLOAD DUP1 DUP4 SUB DUP2 DUP7 GAS STATICCALL ISZERO DUP1 ISZERO PUSH2 0x3E9 JUMPI RETURNDATASIZE PUSH0 PUSH0 RETURNDATACOPY RETURNDATASIZE PUSH0 REVERT JUMPDEST POP POP POP POP PUSH1 0x40 MLOAD RETURNDATASIZE PUSH1 0x1F NOT PUSH1 0x1F DUP3 ADD AND DUP3 ADD DUP1 PUSH1 0x40 MSTORE POP DUP2 ADD SWAP1 PUSH2 0x40D SWAP2 SWAP1 PUSH2 0x7FB JUMP JUMPDEST POP POP POP SWAP2 POP POP PUSH5 0x2540BE400 DUP2 PUSH2 0x424 SWAP2 SWAP1 PUSH2 0x872 JUMP JUMPDEST SWAP3 POP POP POP SWAP1 JUMP JUMPDEST PUSH0 DUP2 SWAP1 POP SWAP2 SWAP1 POP JUMP JUMPDEST PUSH2 0x43D DUP2 PUSH2 0x42B JUMP JUMPDEST DUP3 MSTORE POP POP JUMP JUMPDEST PUSH0 PUSH1 0x20 DUP3 ADD SWAP1 POP PUSH2 0x456 PUSH0 DUP4 ADD DUP5 PUSH2 0x434 JUMP JUMPDEST SWAP3 SWAP2 POP POP JUMP JUMPDEST PUSH0 PUSH0 REVERT JUMPDEST PUSH0 PUSH20 0xFFFFFFFFFFFFFFFFFFFFFFFFFFFFFFFFFFFFFFFF DUP3 AND SWAP1 POP SWAP2 SWAP1 POP JUMP JUMPDEST PUSH0 PUSH2 0x489 DUP3 PUSH2 0x460 JUMP JUMPDEST SWAP1 POP SWAP2 SWAP1 POP JUMP JUMPDEST PUSH2 0x499 DUP2 PUSH2 0x47F JUMP JUMPDEST DUP2 EQ PUSH2 0x4A3 JUMPI PUSH0 PUSH0 REVERT JUMPDEST POP JUMP JUMPDEST PUSH0 DUP2 CALLDATALOAD SWAP1 POP PUSH2 0x4B4 DUP2 PUSH2 0x490 JUMP JUMPDEST SWAP3 SWAP2 POP POP JUMP JUMPDEST PUSH0 PUSH1 0x20 DUP3 DUP5 SUB SLT ISZERO PUSH2 0x4CF JUMPI PUSH2 0x4CE PUSH2 0x45C JUMP JUMPDEST JUMPDEST PUSH0 PUSH2 0x4DC DUP5 DUP3 DUP6 ADD PUSH2 0x4A6 JUMP JUMPDEST SWAP2 POP POP SWAP3 SWAP2 POP POP JUMP JUMPDEST PUSH0 DUP2 MLOAD SWAP1 POP SWAP2 SWAP1 POP JUMP JUMPDEST PUSH0 DUP3 DUP3 MSTORE PUSH1 0x20 DUP3 ADD SWAP1 POP SWAP3 SWAP2 POP POP JUMP JUMPDEST PUSH0 DUP2 SWAP1 POP PUSH1 0x20 DUP3 ADD SWAP1 POP SWAP2 SWAP1 POP JUMP JUMPDEST PUSH2 0x517 DUP2 PUSH2 0x47F JUMP JUMPDEST DUP3 MSTORE POP POP JUMP JUMPDEST PUSH0 PUSH2 0x528 DUP4 DUP4 PUSH2 0x50E JUMP JUMPDEST PUSH1 0x20 DUP4 ADD SWAP1 POP SWAP3 SWAP2 POP POP JUMP JUMPDEST PUSH0 PUSH1 0x20 DUP3 ADD SWAP1 POP SWAP2 SWAP1 POP JUMP JUMPDEST PUSH0 PUSH2 0x54A DUP3 PUSH2 0x4E5 JUMP JUMPDEST PUSH2 0x554 DUP2 DUP6 PUSH2 0x4EF JUMP JUMPDEST SWAP4 POP PUSH2 0x55F DUP4 PUSH2 0x4FF JUMP JUMPDEST DUP1 PUSH0 JUMPDEST DUP4 DUP2 LT ISZERO PUSH2 0x58F JUMPI DUP2 MLOAD PUSH2 0x576 DUP9 DUP3 PUSH2 0x51D JUMP JUMPDEST SWAP8 POP PUSH2 0x581 DUP4 PUSH2 0x534 JUMP JUMPDEST SWAP3 POP POP PUSH1 0x1 DUP2 ADD SWAP1 POP PUSH2 0x562 JUMP JUMPDEST POP DUP6 SWAP4 POP POP POP POP SWAP3 SWAP2 POP POP JUMP JUMPDEST PUSH0 PUSH1 0x20 DUP3 ADD SWAP1 POP DUP2 DUP2 SUB PUSH0 DUP4 ADD MSTORE PUSH2 0x5B4 DUP2 DUP5 PUSH2 0x540 JUMP JUMPDEST SWAP1 POP SWAP3 SWAP2 POP POP JUMP JUMPDEST PUSH32 0x4E487B7100000000000000000000000000000000000000000000000000000000 PUSH0 MSTORE PUSH1 0x32 PUSH1 0x4 MSTORE PUSH1 0x24 PUSH0 REVERT JUMPDEST PUSH32 0x4E487B7100000000000000000000000000000000000000000000000000000000 PUSH0 MSTORE PUSH1 0x11 PUSH1 0x4 MSTORE PUSH1 0x24 PUSH0 REVERT JUMPDEST PUSH0 PUSH2 0x620 DUP3 PUSH2 0x42B JUMP JUMPDEST SWAP2 POP PUSH2 0x62B DUP4 PUSH2 0x42B JUMP JUMPDEST SWAP3 POP DUP3 DUP3 ADD SWAP1 POP DUP1 DUP3 GT ISZERO PUSH2 0x643 JUMPI PUSH2 0x642 PUSH2 0x5E9 JUMP JUMPDEST JUMPDEST SWAP3 SWAP2 POP POP JUMP JUMPDEST PUSH0 DUP3 DUP3 MSTORE PUSH1 0x20 DUP3 ADD SWAP1 POP SWAP3 SWAP2 POP POP JUMP JUMPDEST PUSH32 0x4E6F7420656E6F75676820455448207761732073656E742E0000000000000000 PUSH0 DUP3 ADD MSTORE POP JUMP JUMPDEST PUSH0 PUSH2 0x68D PUSH1 0x18 DUP4 PUSH2 0x649 JUMP JUMPDEST SWAP2 POP PUSH2 0x698 DUP3 PUSH2 0x659 JUMP JUMPDEST PUSH1 0x20 DUP3 ADD SWAP1 POP SWAP2 SWAP1 POP JUMP JUMPDEST PUSH0 PUSH1 0x20 DUP3 ADD SWAP1 POP DUP2 DUP2 SUB PUSH0 DUP4 ADD MSTORE PUSH2 0x6BA DUP2 PUSH2 0x681 JUMP JUMPDEST SWAP1 POP SWAP2 SWAP1 POP JUMP JUMPDEST PUSH0 PUSH2 0x6CB DUP3 PUSH2 0x42B JUMP JUMPDEST SWAP2 POP PUSH2 0x6D6 DUP4 PUSH2 0x42B JUMP JUMPDEST SWAP3 POP DUP3 DUP3 MUL PUSH2 0x6E4 DUP2 PUSH2 0x42B JUMP JUMPDEST SWAP2 POP DUP3 DUP3 DIV DUP5 EQ DUP4 ISZERO OR PUSH2 0x6FB JUMPI PUSH2 0x6FA PUSH2 0x5E9 JUMP JUMPDEST JUMPDEST POP SWAP3 SWAP2 POP POP JUMP JUMPDEST PUSH32 0x4E487B7100000000000000000000000000000000000000000000000000000000 PUSH0 MSTORE PUSH1 0x12 PUSH1 0x4 MSTORE PUSH1 0x24 PUSH0 REVERT JUMPDEST PUSH0 PUSH2 0x739 DUP3 PUSH2 0x42B JUMP JUMPDEST SWAP2 POP PUSH2 0x744 DUP4 PUSH2 0x42B JUMP JUMPDEST SWAP3 POP DUP3 PUSH2 0x754 JUMPI PUSH2 0x753 PUSH2 0x702 JUMP JUMPDEST JUMPDEST DUP3 DUP3 DIV SWAP1 POP SWAP3 SWAP2 POP POP JUMP JUMPDEST PUSH0 PUSH10 0xFFFFFFFFFFFFFFFFFFFF DUP3 AND SWAP1 POP SWAP2 SWAP1 POP JUMP JUMPDEST PUSH2 0x77D DUP2 PUSH2 0x75F JUMP JUMPDEST DUP2 EQ PUSH2 0x787 JUMPI PUSH0 PUSH0 REVERT JUMPDEST POP JUMP JUMPDEST PUSH0 DUP2 MLOAD SWAP1 POP PUSH2 0x798 DUP2 PUSH2 0x774 JUMP JUMPDEST SWAP3 SWAP2 POP POP JUMP JUMPDEST PUSH0 DUP2 SWAP1 POP SWAP2 SWAP1 POP JUMP JUMPDEST PUSH2 0x7B0 DUP2 PUSH2 0x79E JUMP JUMPDEST DUP2 EQ PUSH2 0x7BA JUMPI PUSH0 PUSH0 REVERT JUMPDEST POP JUMP JUMPDEST PUSH0 DUP2 MLOAD SWAP1 POP PUSH2 0x7CB DUP2 PUSH2 0x7A7 JUMP JUMPDEST SWAP3 SWAP2 POP POP JUMP JUMPDEST PUSH2 0x7DA DUP2 PUSH2 0x42B JUMP JUMPDEST DUP2 EQ PUSH2 0x7E4 JUMPI PUSH0 PUSH0 REVERT JUMPDEST POP JUMP JUMPDEST PUSH0 DUP2 MLOAD SWAP1 POP PUSH2 0x7F5 DUP2 PUSH2 0x7D1 JUMP JUMPDEST SWAP3 SWAP2 POP POP JUMP JUMPDEST PUSH0 PUSH0 PUSH0 PUSH0 PUSH0 PUSH1 0xA0 DUP7 DUP9 SUB SLT ISZERO PUSH2 0x814 JUMPI PUSH2 0x813 PUSH2 0x45C JUMP JUMPDEST JUMPDEST PUSH0 PUSH2 0x821 DUP9 DUP3 DUP10 ADD PUSH2 0x78A JUMP JUMPDEST SWAP6 POP POP PUSH1 0x20 PUSH2 0x832 DUP9 DUP3 DUP10 ADD PUSH2 0x7BD JUMP JUMPDEST SWAP5 POP POP PUSH1 0x40 PUSH2 0x843 DUP9 DUP3 DUP10 ADD PUSH2 0x7E7 JUMP JUMPDEST SWAP4 POP POP PUSH1 0x60 PUSH2 0x854 DUP9 DUP3 DUP10 ADD PUSH2 0x7E7 JUMP JUMPDEST SWAP3 POP POP PUSH1 0x80 PUSH2 0x865 DUP9 DUP3 DUP10 ADD PUSH2 0x78A JUMP JUMPDEST SWAP2 POP POP SWAP3 SWAP6 POP SWAP3 SWAP6 SWAP1 SWAP4 POP JUMP JUMPDEST PUSH0 PUSH2 0x87C DUP3 PUSH2 0x79E JUMP JUMPDEST SWAP2 POP PUSH2 0x887 DUP4 PUSH2 0x79E JUMP JUMPDEST SWAP3 POP DUP3 DUP3 MUL PUSH2 0x895 DUP2 PUSH2 0x79E JUMP JUMPDEST SWAP2 POP PUSH32 0x8000000000000000000000000000000000000000000000000000000000000000 DUP5 EQ PUSH0 DUP5 SLT AND ISZERO PUSH2 0x8CC JUMPI PUSH2 0x8CB PUSH2 0x5E9 JUMP JUMPDEST JUMPDEST DUP3 DUP3 SDIV DUP5 EQ DUP4 ISZERO OR PUSH2 0x8E1 JUMPI PUSH2 0x8E0 PUSH2 0x5E9 JUMP JUMPDEST JUMPDEST POP SWAP3 SWAP2 POP POP JUMP INVALID LOG2 PUSH5 0x6970667358 0x22 SLT KECCAK256 0xD9 BASEFEE LOG1 DUP16 0xBE XOR SELFBALANCE PUSH28 0xC3F8C9D7582E3DAE5222CF6B381116C62302A02C47ECCEFE64736F6C PUSH4 0x4300081C STOP CALLER "
				},
				"gasEstimates": {
					"creation": {
						"codeDepositCost": "466800",
						"executionCost": "22602",
						"totalCost": "489402"
					},
					"external": {
						"addressToAmountFunded(address)": "2824",
						"fund()": "infinite",
						"getFund()": "infinite",
						"minimumUsd()": "2402",
						"withdraw()": "infinite"
					}
				},
				"methodIdentifiers": {
					"addressToAmountFunded(address)": "3e47d6f3",
					"fund()": "b60d4288",
					"getFund()": "8edd6eb6",
					"minimumUsd()": "098de820",
					"withdraw()": "3ccfd60b"
				}
			},
			"storageLayout": {
				"storage": [
					{
						"astId": 60,
						"contract": "FundMe.sol:FundMe",
						"label": "minimumUsd",
						"offset": 0,
						"slot": "0",
						"type": "t_uint256"
					},
					{
						"astId": 63,
						"contract": "FundMe.sol:FundMe",
						"label": "funders",
						"offset": 0,
						"slot": "1",
						"type": "t_array(t_address)dyn_storage"
					},
					{
						"astId": 67,
						"contract": "FundMe.sol:FundMe",
						"label": "addressToAmountFunded",
						"offset": 0,
						"slot": "2",
						"type": "t_mapping(t_address,t_uint256)"
					}
				],
				"types": {
					"t_address": {
						"encoding": "inplace",
						"label": "address",
						"numberOfBytes": "20"
					},
					"t_array(t_address)dyn_storage": {
						"base": "t_address",
						"encoding": "dynamic_array",
						"label": "address[]",
						"numberOfBytes": "32"
					},
					"t_mapping(t_address,t_uint256)": {
						"encoding": "mapping",
						"key": "t_address",
						"label": "mapping(address => uint256)",
						"numberOfBytes": "32",
						"value": "t_uint256"
					},
					"t_uint256": {
						"encoding": "inplace",
						"label": "uint256",
						"numberOfBytes": "32"
					}
				}
			},
			"userdoc": {
				"kind": "user",
				"methods": {},
				"version": 1
			}
		}
	}
}