{
	"FundMe.sol": {
		"FundMe": {
			"abi": [
				{
					"inputs": [
						{
							"internalType": "address",
							"name": "funder",
							"type": "address"
						}
					],
					"name": "addressToAmountFunded",
					"outputs": [
						{
							"internalType": "uint256",
							"name": "amountFunded",
							"type": "uint256"
						}
					],
					"stateMutability": "view",
					"type": "function"
				},
				{
					"inputs": [],
					"name": "fund",
					"outputs": [],
					"stateMutability": "payable",
					"type": "function"
				},
				{
					"inputs": [
						{
							"internalType": "uint256",
							"name": "_ethAmount",
							"type": "uint256"
						}
					],
					"name": "getConversionRate",
					"outputs": [
						{
							"internalType": "uint256",
							"name": "",
							"type": "uint256"
						}
					],
					"stateMutability": "view",
					"type": "function"
				},
				{
					"inputs": [],
					"name": "getFund",
					"outputs": [
						{
							"internalType": "address[]",
							"name": "",
							"type": "address[]"
						}
					],
					"stateMutability": "view",
					"type": "function"
				},
				{
					"inputs": [],
					"name": "getPrice",
					"outputs": [
						{
							"internalType": "uint256",
							"name": "",
							"type": "uint256"
						}
					],
					"stateMutability": "view",
					"type": "function"
				},
				{
					"inputs": [],
					"name": "getVersion",
					"outputs": [
						{
							"internalType": "uint256",
							"name": "",
							"type": "uint256"
						}
					],
					"stateMutability": "view",
					"type": "function"
				},
				{
					"inputs": [],
					"name": "minimumUsd",
					"outputs": [
						{
							"internalType": "uint256",
							"name": "",
							"type": "uint256"
						}
					],
					"stateMutability": "view",
					"type": "function"
				},
				{
					"inputs": [],
					"name": "withdraw",
					"outputs": [],
					"stateMutability": "nonpayable",
					"type": "function"
				}
			],
			"devdoc": {
				"kind": "dev",
				"methods": {},
				"version": 1
			},
			"evm": {
				"assembly": "    /* \"FundMe.sol\":344:3880  contract FundMe... */\n  mstore(0x40, 0x80)\n    /* \"FundMe.sol\":467:481  5 * (10 ** 18) */\n  0x4563918244f40000\n    /* \"FundMe.sol\":439:481  uint256 public minimumUsd = 5 * (10 ** 18) */\n  0x00\n  sstore\n    /* \"FundMe.sol\":344:3880  contract FundMe... */\n  callvalue\n  dup1\n  iszero\n  tag_1\n  jumpi\n  0x00\n  dup1\n  revert\ntag_1:\n  pop\n  dataSize(sub_0)\n  dup1\n  dataOffset(sub_0)\n  0x00\n  codecopy\n  0x00\n  return\nstop\n\nsub_0: assembly {\n        /* \"FundMe.sol\":344:3880  contract FundMe... */\n      mstore(0x40, 0x80)\n      jumpi(tag_1, lt(calldatasize, 0x04))\n      shr(0xe0, calldataload(0x00))\n      dup1\n      0x6e5b6b28\n      gt\n      tag_10\n      jumpi\n      dup1\n      0x6e5b6b28\n      eq\n      tag_6\n      jumpi\n      dup1\n      0x8edd6eb6\n      eq\n      tag_7\n      jumpi\n      dup1\n      0x98d5fdca\n      eq\n      tag_8\n      jumpi\n      dup1\n      0xb60d4288\n      eq\n      tag_9\n      jumpi\n      jump(tag_1)\n    tag_10:\n      dup1\n      0x098de820\n      eq\n      tag_2\n      jumpi\n      dup1\n      0x0d8e6e2c\n      eq\n      tag_3\n      jumpi\n      dup1\n      0x3ccfd60b\n      eq\n      tag_4\n      jumpi\n      dup1\n      0x3e47d6f3\n      eq\n      tag_5\n      jumpi\n    tag_1:\n      0x00\n      dup1\n      revert\n        /* \"FundMe.sol\":439:481  uint256 public minimumUsd = 5 * (10 ** 18) */\n    tag_2:\n      callvalue\n      dup1\n      iszero\n      tag_11\n      jumpi\n      0x00\n      dup1\n      revert\n    tag_11:\n      pop\n      tag_12\n      tag_13\n      jump\t// in\n    tag_12:\n      mload(0x40)\n      tag_14\n      swap2\n      swap1\n      tag_15\n      jump\t// in\n    tag_14:\n      mload(0x40)\n      dup1\n      swap2\n      sub\n      swap1\n      return\n        /* \"FundMe.sol\":3568:3877  function getVersion() public view returns(uint256)... */\n    tag_3:\n      callvalue\n      dup1\n      iszero\n      tag_16\n      jumpi\n      0x00\n      dup1\n      revert\n    tag_16:\n      pop\n      tag_17\n      tag_18\n      jump\t// in\n    tag_17:\n      mload(0x40)\n      tag_19\n      swap2\n      swap1\n      tag_15\n      jump\t// in\n    tag_19:\n      mload(0x40)\n      dup1\n      swap2\n      sub\n      swap1\n      return\n        /* \"FundMe.sol\":3517:3560  function withdraw() public ... */\n    tag_4:\n      callvalue\n      dup1\n      iszero\n      tag_20\n      jumpi\n      0x00\n      dup1\n      revert\n    tag_20:\n      pop\n      tag_21\n      tag_22\n      jump\t// in\n    tag_21:\n      stop\n        /* \"FundMe.sol\":633:710  mapping (address funder => uint256 amountFunded) public addressToAmountFunded */\n    tag_5:\n      callvalue\n      dup1\n      iszero\n      tag_23\n      jumpi\n      0x00\n      dup1\n      revert\n    tag_23:\n      pop\n      tag_24\n      0x04\n      dup1\n      calldatasize\n      sub\n      dup2\n      add\n      swap1\n      tag_25\n      swap2\n      swap1\n      tag_26\n      jump\t// in\n    tag_25:\n      tag_27\n      jump\t// in\n    tag_24:\n      mload(0x40)\n      tag_28\n      swap2\n      swap1\n      tag_15\n      jump\t// in\n    tag_28:\n      mload(0x40)\n      dup1\n      swap2\n      sub\n      swap1\n      return\n        /* \"FundMe.sol\":2821:3430  function getConversionRate(uint256 _ethAmount) public view returns (uint256)... */\n    tag_6:\n      callvalue\n      dup1\n      iszero\n      tag_29\n      jumpi\n      0x00\n      dup1\n      revert\n    tag_29:\n      pop\n      tag_30\n      0x04\n      dup1\n      calldatasize\n      sub\n      dup2\n      add\n      swap1\n      tag_31\n      swap2\n      swap1\n      tag_32\n      jump\t// in\n    tag_31:\n      tag_33\n      jump\t// in\n    tag_30:\n      mload(0x40)\n      tag_34\n      swap2\n      swap1\n      tag_15\n      jump\t// in\n    tag_34:\n      mload(0x40)\n      dup1\n      swap2\n      sub\n      swap1\n      return\n        /* \"FundMe.sol\":1677:1770  function getFund() public view returns (address[] memory) {... */\n    tag_7:\n      callvalue\n      dup1\n      iszero\n      tag_35\n      jumpi\n      0x00\n      dup1\n      revert\n    tag_35:\n      pop\n      tag_36\n      tag_37\n      jump\t// in\n    tag_36:\n      mload(0x40)\n      tag_38\n      swap2\n      swap1\n      tag_39\n      jump\t// in\n    tag_38:\n      mload(0x40)\n      dup1\n      swap2\n      sub\n      swap1\n      return\n        /* \"FundMe.sol\":1858:2695  function getPrice() public view returns (uint256)... */\n    tag_8:\n      callvalue\n      dup1\n      iszero\n      tag_40\n      jumpi\n      0x00\n      dup1\n      revert\n    tag_40:\n      pop\n      tag_41\n      tag_42\n      jump\t// in\n    tag_41:\n      mload(0x40)\n      tag_43\n      swap2\n      swap1\n      tag_15\n      jump\t// in\n    tag_43:\n      mload(0x40)\n      dup1\n      swap2\n      sub\n      swap1\n      return\n        /* \"FundMe.sol\":775:1609  function fund() public payable ... */\n    tag_9:\n      tag_44\n      tag_45\n      jump\t// in\n    tag_44:\n      stop\n        /* \"FundMe.sol\":439:481  uint256 public minimumUsd = 5 * (10 ** 18) */\n    tag_13:\n      sload(0x00)\n      dup2\n      jump\t// out\n        /* \"FundMe.sol\":3568:3877  function getVersion() public view returns(uint256)... */\n    tag_18:\n        /* \"FundMe.sol\":3610:3617  uint256 */\n      0x00\n        /* \"FundMe.sol\":3635:3666  AggregatorV3Interface priceFeed */\n      dup1\n        /* \"FundMe.sol\":3691:3733  0x694AA1769357215DE4FAC081bf1f309aDC325306 */\n      0x694aa1769357215de4fac081bf1f309adc325306\n        /* \"FundMe.sol\":3635:3734  AggregatorV3Interface priceFeed = AggregatorV3Interface(0x694AA1769357215DE4FAC081bf1f309aDC325306) */\n      swap1\n      pop\n        /* \"FundMe.sol\":3752:3761  priceFeed */\n      dup1\n        /* \"FundMe.sol\":3752:3769  priceFeed.version */\n      0xffffffffffffffffffffffffffffffffffffffff\n      and\n      0x54fd4d50\n        /* \"FundMe.sol\":3752:3771  priceFeed.version() */\n      mload(0x40)\n      dup2\n      0xffffffff\n      and\n      0xe0\n      shl\n      dup2\n      mstore\n      0x04\n      add\n      0x20\n      mload(0x40)\n      dup1\n      dup4\n      sub\n      dup2\n      dup7\n      gas\n      staticcall\n      iszero\n      dup1\n      iszero\n      tag_48\n      jumpi\n      returndatasize\n      0x00\n      dup1\n      returndatacopy\n      revert(0x00, returndatasize)\n    tag_48:\n      pop\n      pop\n      pop\n      pop\n      mload(0x40)\n      returndatasize\n      not(0x1f)\n      0x1f\n      dup3\n      add\n      and\n      dup3\n      add\n      dup1\n      0x40\n      mstore\n      pop\n      dup2\n      add\n      swap1\n      tag_49\n      swap2\n      swap1\n      tag_50\n      jump\t// in\n    tag_49:\n        /* \"FundMe.sol\":3745:3771  return priceFeed.version() */\n      swap2\n      pop\n      pop\n        /* \"FundMe.sol\":3568:3877  function getVersion() public view returns(uint256)... */\n      swap1\n      jump\t// out\n        /* \"FundMe.sol\":3517:3560  function withdraw() public ... */\n    tag_22:\n      jump\t// out\n        /* \"FundMe.sol\":633:710  mapping (address funder => uint256 amountFunded) public addressToAmountFunded */\n    tag_27:\n      mstore(0x20, 0x02)\n      dup1\n      0x00\n      mstore\n      keccak256(0x00, 0x40)\n      0x00\n      swap2\n      pop\n      swap1\n      pop\n      sload\n      dup2\n      jump\t// out\n        /* \"FundMe.sol\":2821:3430  function getConversionRate(uint256 _ethAmount) public view returns (uint256)... */\n    tag_33:\n        /* \"FundMe.sol\":2889:2896  uint256 */\n      0x00\n        /* \"FundMe.sol\":3123:3139  uint256 ethPrice */\n      dup1\n        /* \"FundMe.sol\":3142:3152  getPrice() */\n      tag_53\n        /* \"FundMe.sol\":3142:3150  getPrice */\n      tag_42\n        /* \"FundMe.sol\":3142:3152  getPrice() */\n      jump\t// in\n    tag_53:\n        /* \"FundMe.sol\":3123:3152  uint256 ethPrice = getPrice() */\n      swap1\n      pop\n        /* \"FundMe.sol\":3335:3357  uint256 ethAmountInUsd */\n      0x00\n        /* \"FundMe.sol\":3386:3390  1e18 */\n      0x0de0b6b3a7640000\n        /* \"FundMe.sol\":3374:3382  ethPrice */\n      dup3\n        /* \"FundMe.sol\":3361:3371  _ethAmount */\n      dup6\n        /* \"FundMe.sol\":3361:3382  _ethAmount * ethPrice */\n      tag_54\n      swap2\n      swap1\n      tag_55\n      jump\t// in\n    tag_54:\n        /* \"FundMe.sol\":3360:3390  (_ethAmount * ethPrice) / 1e18 */\n      tag_56\n      swap2\n      swap1\n      tag_57\n      jump\t// in\n    tag_56:\n        /* \"FundMe.sol\":3335:3390  uint256 ethAmountInUsd = (_ethAmount * ethPrice) / 1e18 */\n      swap1\n      pop\n        /* \"FundMe.sol\":3408:3422  ethAmountInUsd */\n      dup1\n        /* \"FundMe.sol\":3401:3422  return ethAmountInUsd */\n      swap3\n      pop\n      pop\n      pop\n        /* \"FundMe.sol\":2821:3430  function getConversionRate(uint256 _ethAmount) public view returns (uint256)... */\n      swap2\n      swap1\n      pop\n      jump\t// out\n        /* \"FundMe.sol\":1677:1770  function getFund() public view returns (address[] memory) {... */\n    tag_37:\n        /* \"FundMe.sol\":1717:1733  address[] memory */\n      0x60\n        /* \"FundMe.sol\":1755:1762  funders */\n      0x01\n        /* \"FundMe.sol\":1748:1762  return funders */\n      dup1\n      sload\n      dup1\n      0x20\n      mul\n      0x20\n      add\n      mload(0x40)\n      swap1\n      dup2\n      add\n      0x40\n      mstore\n      dup1\n      swap3\n      swap2\n      swap1\n      dup2\n      dup2\n      mstore\n      0x20\n      add\n      dup3\n      dup1\n      sload\n      dup1\n      iszero\n      tag_59\n      jumpi\n      0x20\n      mul\n      dup3\n      add\n      swap2\n      swap1\n      0x00\n      mstore\n      keccak256(0x00, 0x20)\n      swap1\n    tag_60:\n      dup2\n      0x00\n      swap1\n      sload\n      swap1\n      0x0100\n      exp\n      swap1\n      div\n      0xffffffffffffffffffffffffffffffffffffffff\n      and\n      0xffffffffffffffffffffffffffffffffffffffff\n      and\n      dup2\n      mstore\n      0x20\n      add\n      swap1\n      0x01\n      add\n      swap1\n      dup1\n      dup4\n      gt\n      tag_60\n      jumpi\n    tag_59:\n      pop\n      pop\n      pop\n      pop\n      pop\n      swap1\n      pop\n        /* \"FundMe.sol\":1677:1770  function getFund() public view returns (address[] memory) {... */\n      swap1\n      jump\t// out\n        /* \"FundMe.sol\":1858:2695  function getPrice() public view returns (uint256)... */\n    tag_42:\n        /* \"FundMe.sol\":1899:1906  uint256 */\n      0x00\n        /* \"FundMe.sol\":2227:2258  AggregatorV3Interface priceFeed */\n      dup1\n        /* \"FundMe.sol\":2283:2325  0x694AA1769357215DE4FAC081bf1f309aDC325306 */\n      0x694aa1769357215de4fac081bf1f309adc325306\n        /* \"FundMe.sol\":2227:2326  AggregatorV3Interface priceFeed = AggregatorV3Interface(0x694AA1769357215DE4FAC081bf1f309aDC325306) */\n      swap1\n      pop\n        /* \"FundMe.sol\":2455:2469  uint80 roundID */\n      0x00\n        /* \"FundMe.sol\":2471:2484  int256 answer */\n      dup1\n        /* \"FundMe.sol\":2486:2503  uint256 startedAt */\n      0x00\n        /* \"FundMe.sol\":2505:2522  uint256 timeStamp */\n      dup1\n        /* \"FundMe.sol\":2524:2546  uint80 answeredInRound */\n      0x00\n        /* \"FundMe.sol\":2550:2559  priceFeed */\n      dup6\n        /* \"FundMe.sol\":2550:2575  priceFeed.latestRoundData */\n      0xffffffffffffffffffffffffffffffffffffffff\n      and\n      0xfeaf968c\n        /* \"FundMe.sol\":2550:2577  priceFeed.latestRoundData() */\n      mload(0x40)\n      dup2\n      0xffffffff\n      and\n      0xe0\n      shl\n      dup2\n      mstore\n      0x04\n      add\n      0xa0\n      mload(0x40)\n      dup1\n      dup4\n      sub\n      dup2\n      dup7\n      gas\n      staticcall\n      iszero\n      dup1\n      iszero\n      tag_63\n      jumpi\n      returndatasize\n      0x00\n      dup1\n      returndatacopy\n      revert(0x00, returndatasize)\n    tag_63:\n      pop\n      pop\n      pop\n      pop\n      mload(0x40)\n      returndatasize\n      not(0x1f)\n      0x1f\n      dup3\n      add\n      and\n      dup3\n      add\n      dup1\n      0x40\n      mstore\n      pop\n      dup2\n      add\n      swap1\n      tag_64\n      swap2\n      swap1\n      tag_65\n      jump\t// in\n    tag_64:\n        /* \"FundMe.sol\":2454:2577  (uint80 roundID, int256 answer, uint256 startedAt, uint256 timeStamp, uint80 answeredInRound) = priceFeed.latestRoundData() */\n      swap5\n      pop\n      swap5\n      pop\n      swap5\n      pop\n      swap5\n      pop\n      swap5\n      pop\n        /* \"FundMe.sol\":2680:2684  1e10 */\n      0x02540be400\n        /* \"FundMe.sol\":2671:2677  answer */\n      dup5\n        /* \"FundMe.sol\":2671:2684  answer * 1e10 */\n      tag_66\n      swap2\n      swap1\n      tag_67\n      jump\t// in\n    tag_66:\n        /* \"FundMe.sol\":2656:2685  return uint256(answer * 1e10) */\n      swap7\n      pop\n      pop\n      pop\n      pop\n      pop\n      pop\n      pop\n        /* \"FundMe.sol\":1858:2695  function getPrice() public view returns (uint256)... */\n      swap1\n      jump\t// out\n        /* \"FundMe.sol\":775:1609  function fund() public payable ... */\n    tag_45:\n        /* \"FundMe.sol\":1046:1056  minimumUsd */\n      sload(0x00)\n        /* \"FundMe.sol\":1014:1042  getConversionRate(msg.value) */\n      tag_69\n        /* \"FundMe.sol\":1032:1041  msg.value */\n      callvalue\n        /* \"FundMe.sol\":1014:1031  getConversionRate */\n      tag_33\n        /* \"FundMe.sol\":1014:1042  getConversionRate(msg.value) */\n      jump\t// in\n    tag_69:\n        /* \"FundMe.sol\":1014:1056  getConversionRate(msg.value) >= minimumUsd */\n      lt\n      iszero\n        /* \"FundMe.sol\":1006:1085  require(getConversionRate(msg.value) >= minimumUsd, \"Not enough ETH was sent.\") */\n      tag_70\n      jumpi\n      mload(0x40)\n      0x08c379a000000000000000000000000000000000000000000000000000000000\n      dup2\n      mstore\n      0x04\n      add\n      tag_71\n      swap1\n      tag_72\n      jump\t// in\n    tag_71:\n      mload(0x40)\n      dup1\n      swap2\n      sub\n      swap1\n      revert\n    tag_70:\n        /* \"FundMe.sol\":1261:1268  funders */\n      0x01\n        /* \"FundMe.sol\":1274:1284  msg.sender */\n      caller\n        /* \"FundMe.sol\":1261:1285  funders.push(msg.sender) */\n      swap1\n      dup1\n      0x01\n      dup2\n      sload\n      add\n      dup1\n      dup3\n      sstore\n      dup1\n      swap2\n      pop\n      pop\n      0x01\n      swap1\n      sub\n      swap1\n      0x00\n      mstore\n      keccak256(0x00, 0x20)\n      add\n      0x00\n      swap1\n      swap2\n      swap1\n      swap2\n      swap1\n      swap2\n      0x0100\n      exp\n      dup2\n      sload\n      dup2\n      0xffffffffffffffffffffffffffffffffffffffff\n      mul\n      not\n      and\n      swap1\n      dup4\n      0xffffffffffffffffffffffffffffffffffffffff\n      and\n      mul\n      or\n      swap1\n      sstore\n      pop\n        /* \"FundMe.sol\":1592:1601  msg.value */\n      callvalue\n        /* \"FundMe.sol\":1556:1577  addressToAmountFunded */\n      0x02\n        /* \"FundMe.sol\":1556:1589  addressToAmountFunded[msg.sender] */\n      0x00\n        /* \"FundMe.sol\":1578:1588  msg.sender */\n      caller\n        /* \"FundMe.sol\":1556:1589  addressToAmountFunded[msg.sender] */\n      0xffffffffffffffffffffffffffffffffffffffff\n      and\n      0xffffffffffffffffffffffffffffffffffffffff\n      and\n      dup2\n      mstore\n      0x20\n      add\n      swap1\n      dup2\n      mstore\n      0x20\n      add\n      0x00\n      keccak256\n      sload\n        /* \"FundMe.sol\":1556:1601  addressToAmountFunded[msg.sender] + msg.value */\n      tag_74\n      swap2\n      swap1\n      tag_75\n      jump\t// in\n    tag_74:\n        /* \"FundMe.sol\":1520:1541  addressToAmountFunded */\n      0x02\n        /* \"FundMe.sol\":1520:1553  addressToAmountFunded[msg.sender] */\n      0x00\n        /* \"FundMe.sol\":1542:1552  msg.sender */\n      caller\n        /* \"FundMe.sol\":1520:1553  addressToAmountFunded[msg.sender] */\n      0xffffffffffffffffffffffffffffffffffffffff\n      and\n      0xffffffffffffffffffffffffffffffffffffffff\n      and\n      dup2\n      mstore\n      0x20\n      add\n      swap1\n      dup2\n      mstore\n      0x20\n      add\n      0x00\n      keccak256\n        /* \"FundMe.sol\":1520:1601  addressToAmountFunded[msg.sender] = addressToAmountFunded[msg.sender] + msg.value */\n      dup2\n      swap1\n      sstore\n      pop\n        /* \"FundMe.sol\":775:1609  function fund() public payable ... */\n      jump\t// out\n        /* \"#utility.yul\":7:84   */\n    tag_76:\n        /* \"#utility.yul\":44:51   */\n      0x00\n        /* \"#utility.yul\":73:78   */\n      dup2\n        /* \"#utility.yul\":62:78   */\n      swap1\n      pop\n        /* \"#utility.yul\":7:84   */\n      swap2\n      swap1\n      pop\n      jump\t// out\n        /* \"#utility.yul\":90:208   */\n    tag_77:\n        /* \"#utility.yul\":177:201   */\n      tag_109\n        /* \"#utility.yul\":195:200   */\n      dup2\n        /* \"#utility.yul\":177:201   */\n      tag_76\n      jump\t// in\n    tag_109:\n        /* \"#utility.yul\":172:175   */\n      dup3\n        /* \"#utility.yul\":165:202   */\n      mstore\n        /* \"#utility.yul\":90:208   */\n      pop\n      pop\n      jump\t// out\n        /* \"#utility.yul\":214:436   */\n    tag_15:\n        /* \"#utility.yul\":307:311   */\n      0x00\n        /* \"#utility.yul\":345:347   */\n      0x20\n        /* \"#utility.yul\":334:343   */\n      dup3\n        /* \"#utility.yul\":330:348   */\n      add\n        /* \"#utility.yul\":322:348   */\n      swap1\n      pop\n        /* \"#utility.yul\":358:429   */\n      tag_111\n        /* \"#utility.yul\":426:427   */\n      0x00\n        /* \"#utility.yul\":415:424   */\n      dup4\n        /* \"#utility.yul\":411:428   */\n      add\n        /* \"#utility.yul\":402:408   */\n      dup5\n        /* \"#utility.yul\":358:429   */\n      tag_77\n      jump\t// in\n    tag_111:\n        /* \"#utility.yul\":214:436   */\n      swap3\n      swap2\n      pop\n      pop\n      jump\t// out\n        /* \"#utility.yul\":523:640   */\n    tag_79:\n        /* \"#utility.yul\":632:633   */\n      0x00\n        /* \"#utility.yul\":629:630   */\n      dup1\n        /* \"#utility.yul\":622:634   */\n      revert\n        /* \"#utility.yul\":769:895   */\n    tag_81:\n        /* \"#utility.yul\":806:813   */\n      0x00\n        /* \"#utility.yul\":846:888   */\n      0xffffffffffffffffffffffffffffffffffffffff\n        /* \"#utility.yul\":839:844   */\n      dup3\n        /* \"#utility.yul\":835:889   */\n      and\n        /* \"#utility.yul\":824:889   */\n      swap1\n      pop\n        /* \"#utility.yul\":769:895   */\n      swap2\n      swap1\n      pop\n      jump\t// out\n        /* \"#utility.yul\":901:997   */\n    tag_82:\n        /* \"#utility.yul\":938:945   */\n      0x00\n        /* \"#utility.yul\":967:991   */\n      tag_117\n        /* \"#utility.yul\":985:990   */\n      dup3\n        /* \"#utility.yul\":967:991   */\n      tag_81\n      jump\t// in\n    tag_117:\n        /* \"#utility.yul\":956:991   */\n      swap1\n      pop\n        /* \"#utility.yul\":901:997   */\n      swap2\n      swap1\n      pop\n      jump\t// out\n        /* \"#utility.yul\":1003:1125   */\n    tag_83:\n        /* \"#utility.yul\":1076:1100   */\n      tag_119\n        /* \"#utility.yul\":1094:1099   */\n      dup2\n        /* \"#utility.yul\":1076:1100   */\n      tag_82\n      jump\t// in\n    tag_119:\n        /* \"#utility.yul\":1069:1074   */\n      dup2\n        /* \"#utility.yul\":1066:1101   */\n      eq\n        /* \"#utility.yul\":1056:1119   */\n      tag_120\n      jumpi\n        /* \"#utility.yul\":1115:1116   */\n      0x00\n        /* \"#utility.yul\":1112:1113   */\n      dup1\n        /* \"#utility.yul\":1105:1117   */\n      revert\n        /* \"#utility.yul\":1056:1119   */\n    tag_120:\n        /* \"#utility.yul\":1003:1125   */\n      pop\n      jump\t// out\n        /* \"#utility.yul\":1131:1270   */\n    tag_84:\n        /* \"#utility.yul\":1177:1182   */\n      0x00\n        /* \"#utility.yul\":1215:1221   */\n      dup2\n        /* \"#utility.yul\":1202:1222   */\n      calldataload\n        /* \"#utility.yul\":1193:1222   */\n      swap1\n      pop\n        /* \"#utility.yul\":1231:1264   */\n      tag_122\n        /* \"#utility.yul\":1258:1263   */\n      dup2\n        /* \"#utility.yul\":1231:1264   */\n      tag_83\n      jump\t// in\n    tag_122:\n        /* \"#utility.yul\":1131:1270   */\n      swap3\n      swap2\n      pop\n      pop\n      jump\t// out\n        /* \"#utility.yul\":1276:1605   */\n    tag_26:\n        /* \"#utility.yul\":1335:1341   */\n      0x00\n        /* \"#utility.yul\":1384:1386   */\n      0x20\n        /* \"#utility.yul\":1372:1381   */\n      dup3\n        /* \"#utility.yul\":1363:1370   */\n      dup5\n        /* \"#utility.yul\":1359:1382   */\n      sub\n        /* \"#utility.yul\":1355:1387   */\n      slt\n        /* \"#utility.yul\":1352:1471   */\n      iszero\n      tag_124\n      jumpi\n        /* \"#utility.yul\":1390:1469   */\n      tag_125\n      tag_79\n      jump\t// in\n    tag_125:\n        /* \"#utility.yul\":1352:1471   */\n    tag_124:\n        /* \"#utility.yul\":1510:1511   */\n      0x00\n        /* \"#utility.yul\":1535:1588   */\n      tag_126\n        /* \"#utility.yul\":1580:1587   */\n      dup5\n        /* \"#utility.yul\":1571:1577   */\n      dup3\n        /* \"#utility.yul\":1560:1569   */\n      dup6\n        /* \"#utility.yul\":1556:1578   */\n      add\n        /* \"#utility.yul\":1535:1588   */\n      tag_84\n      jump\t// in\n    tag_126:\n        /* \"#utility.yul\":1525:1588   */\n      swap2\n      pop\n        /* \"#utility.yul\":1481:1598   */\n      pop\n        /* \"#utility.yul\":1276:1605   */\n      swap3\n      swap2\n      pop\n      pop\n      jump\t// out\n        /* \"#utility.yul\":1611:1733   */\n    tag_85:\n        /* \"#utility.yul\":1684:1708   */\n      tag_128\n        /* \"#utility.yul\":1702:1707   */\n      dup2\n        /* \"#utility.yul\":1684:1708   */\n      tag_76\n      jump\t// in\n    tag_128:\n        /* \"#utility.yul\":1677:1682   */\n      dup2\n        /* \"#utility.yul\":1674:1709   */\n      eq\n        /* \"#utility.yul\":1664:1727   */\n      tag_129\n      jumpi\n        /* \"#utility.yul\":1723:1724   */\n      0x00\n        /* \"#utility.yul\":1720:1721   */\n      dup1\n        /* \"#utility.yul\":1713:1725   */\n      revert\n        /* \"#utility.yul\":1664:1727   */\n    tag_129:\n        /* \"#utility.yul\":1611:1733   */\n      pop\n      jump\t// out\n        /* \"#utility.yul\":1739:1878   */\n    tag_86:\n        /* \"#utility.yul\":1785:1790   */\n      0x00\n        /* \"#utility.yul\":1823:1829   */\n      dup2\n        /* \"#utility.yul\":1810:1830   */\n      calldataload\n        /* \"#utility.yul\":1801:1830   */\n      swap1\n      pop\n        /* \"#utility.yul\":1839:1872   */\n      tag_131\n        /* \"#utility.yul\":1866:1871   */\n      dup2\n        /* \"#utility.yul\":1839:1872   */\n      tag_85\n      jump\t// in\n    tag_131:\n        /* \"#utility.yul\":1739:1878   */\n      swap3\n      swap2\n      pop\n      pop\n      jump\t// out\n        /* \"#utility.yul\":1884:2213   */\n    tag_32:\n        /* \"#utility.yul\":1943:1949   */\n      0x00\n        /* \"#utility.yul\":1992:1994   */\n      0x20\n        /* \"#utility.yul\":1980:1989   */\n      dup3\n        /* \"#utility.yul\":1971:1978   */\n      dup5\n        /* \"#utility.yul\":1967:1990   */\n      sub\n        /* \"#utility.yul\":1963:1995   */\n      slt\n        /* \"#utility.yul\":1960:2079   */\n      iszero\n      tag_133\n      jumpi\n        /* \"#utility.yul\":1998:2077   */\n      tag_134\n      tag_79\n      jump\t// in\n    tag_134:\n        /* \"#utility.yul\":1960:2079   */\n    tag_133:\n        /* \"#utility.yul\":2118:2119   */\n      0x00\n        /* \"#utility.yul\":2143:2196   */\n      tag_135\n        /* \"#utility.yul\":2188:2195   */\n      dup5\n        /* \"#utility.yul\":2179:2185   */\n      dup3\n        /* \"#utility.yul\":2168:2177   */\n      dup6\n        /* \"#utility.yul\":2164:2186   */\n      add\n        /* \"#utility.yul\":2143:2196   */\n      tag_86\n      jump\t// in\n    tag_135:\n        /* \"#utility.yul\":2133:2196   */\n      swap2\n      pop\n        /* \"#utility.yul\":2089:2206   */\n      pop\n        /* \"#utility.yul\":1884:2213   */\n      swap3\n      swap2\n      pop\n      pop\n      jump\t// out\n        /* \"#utility.yul\":2219:2333   */\n    tag_87:\n        /* \"#utility.yul\":2286:2292   */\n      0x00\n        /* \"#utility.yul\":2320:2325   */\n      dup2\n        /* \"#utility.yul\":2314:2326   */\n      mload\n        /* \"#utility.yul\":2304:2326   */\n      swap1\n      pop\n        /* \"#utility.yul\":2219:2333   */\n      swap2\n      swap1\n      pop\n      jump\t// out\n        /* \"#utility.yul\":2339:2523   */\n    tag_88:\n        /* \"#utility.yul\":2438:2449   */\n      0x00\n        /* \"#utility.yul\":2472:2478   */\n      dup3\n        /* \"#utility.yul\":2467:2470   */\n      dup3\n        /* \"#utility.yul\":2460:2479   */\n      mstore\n        /* \"#utility.yul\":2512:2516   */\n      0x20\n        /* \"#utility.yul\":2507:2510   */\n      dup3\n        /* \"#utility.yul\":2503:2517   */\n      add\n        /* \"#utility.yul\":2488:2517   */\n      swap1\n      pop\n        /* \"#utility.yul\":2339:2523   */\n      swap3\n      swap2\n      pop\n      pop\n      jump\t// out\n        /* \"#utility.yul\":2529:2661   */\n    tag_89:\n        /* \"#utility.yul\":2596:2600   */\n      0x00\n        /* \"#utility.yul\":2619:2622   */\n      dup2\n        /* \"#utility.yul\":2611:2622   */\n      swap1\n      pop\n        /* \"#utility.yul\":2649:2653   */\n      0x20\n        /* \"#utility.yul\":2644:2647   */\n      dup3\n        /* \"#utility.yul\":2640:2654   */\n      add\n        /* \"#utility.yul\":2632:2654   */\n      swap1\n      pop\n        /* \"#utility.yul\":2529:2661   */\n      swap2\n      swap1\n      pop\n      jump\t// out\n        /* \"#utility.yul\":2667:2775   */\n    tag_90:\n        /* \"#utility.yul\":2744:2768   */\n      tag_140\n        /* \"#utility.yul\":2762:2767   */\n      dup2\n        /* \"#utility.yul\":2744:2768   */\n      tag_82\n      jump\t// in\n    tag_140:\n        /* \"#utility.yul\":2739:2742   */\n      dup3\n        /* \"#utility.yul\":2732:2769   */\n      mstore\n        /* \"#utility.yul\":2667:2775   */\n      pop\n      pop\n      jump\t// out\n        /* \"#utility.yul\":2781:2960   */\n    tag_91:\n        /* \"#utility.yul\":2850:2860   */\n      0x00\n        /* \"#utility.yul\":2871:2917   */\n      tag_142\n        /* \"#utility.yul\":2913:2916   */\n      dup4\n        /* \"#utility.yul\":2905:2911   */\n      dup4\n        /* \"#utility.yul\":2871:2917   */\n      tag_90\n      jump\t// in\n    tag_142:\n        /* \"#utility.yul\":2949:2953   */\n      0x20\n        /* \"#utility.yul\":2944:2947   */\n      dup4\n        /* \"#utility.yul\":2940:2954   */\n      add\n        /* \"#utility.yul\":2926:2954   */\n      swap1\n      pop\n        /* \"#utility.yul\":2781:2960   */\n      swap3\n      swap2\n      pop\n      pop\n      jump\t// out\n        /* \"#utility.yul\":2966:3079   */\n    tag_92:\n        /* \"#utility.yul\":3036:3040   */\n      0x00\n        /* \"#utility.yul\":3068:3072   */\n      0x20\n        /* \"#utility.yul\":3063:3066   */\n      dup3\n        /* \"#utility.yul\":3059:3073   */\n      add\n        /* \"#utility.yul\":3051:3073   */\n      swap1\n      pop\n        /* \"#utility.yul\":2966:3079   */\n      swap2\n      swap1\n      pop\n      jump\t// out\n        /* \"#utility.yul\":3115:3847   */\n    tag_93:\n        /* \"#utility.yul\":3234:3237   */\n      0x00\n        /* \"#utility.yul\":3263:3317   */\n      tag_145\n        /* \"#utility.yul\":3311:3316   */\n      dup3\n        /* \"#utility.yul\":3263:3317   */\n      tag_87\n      jump\t// in\n    tag_145:\n        /* \"#utility.yul\":3333:3419   */\n      tag_146\n        /* \"#utility.yul\":3412:3418   */\n      dup2\n        /* \"#utility.yul\":3407:3410   */\n      dup6\n        /* \"#utility.yul\":3333:3419   */\n      tag_88\n      jump\t// in\n    tag_146:\n        /* \"#utility.yul\":3326:3419   */\n      swap4\n      pop\n        /* \"#utility.yul\":3443:3499   */\n      tag_147\n        /* \"#utility.yul\":3493:3498   */\n      dup4\n        /* \"#utility.yul\":3443:3499   */\n      tag_89\n      jump\t// in\n    tag_147:\n        /* \"#utility.yul\":3522:3529   */\n      dup1\n        /* \"#utility.yul\":3553:3554   */\n      0x00\n        /* \"#utility.yul\":3538:3822   */\n    tag_148:\n        /* \"#utility.yul\":3563:3569   */\n      dup4\n        /* \"#utility.yul\":3560:3561   */\n      dup2\n        /* \"#utility.yul\":3557:3570   */\n      lt\n        /* \"#utility.yul\":3538:3822   */\n      iszero\n      tag_150\n      jumpi\n        /* \"#utility.yul\":3639:3645   */\n      dup2\n        /* \"#utility.yul\":3633:3646   */\n      mload\n        /* \"#utility.yul\":3666:3729   */\n      tag_151\n        /* \"#utility.yul\":3725:3728   */\n      dup9\n        /* \"#utility.yul\":3710:3723   */\n      dup3\n        /* \"#utility.yul\":3666:3729   */\n      tag_91\n      jump\t// in\n    tag_151:\n        /* \"#utility.yul\":3659:3729   */\n      swap8\n      pop\n        /* \"#utility.yul\":3752:3812   */\n      tag_152\n        /* \"#utility.yul\":3805:3811   */\n      dup4\n        /* \"#utility.yul\":3752:3812   */\n      tag_92\n      jump\t// in\n    tag_152:\n        /* \"#utility.yul\":3742:3812   */\n      swap3\n      pop\n        /* \"#utility.yul\":3598:3822   */\n      pop\n        /* \"#utility.yul\":3585:3586   */\n      0x01\n        /* \"#utility.yul\":3582:3583   */\n      dup2\n        /* \"#utility.yul\":3578:3587   */\n      add\n        /* \"#utility.yul\":3573:3587   */\n      swap1\n      pop\n        /* \"#utility.yul\":3538:3822   */\n      jump(tag_148)\n    tag_150:\n        /* \"#utility.yul\":3542:3556   */\n      pop\n        /* \"#utility.yul\":3838:3841   */\n      dup6\n        /* \"#utility.yul\":3831:3841   */\n      swap4\n      pop\n        /* \"#utility.yul\":3239:3847   */\n      pop\n      pop\n      pop\n        /* \"#utility.yul\":3115:3847   */\n      swap3\n      swap2\n      pop\n      pop\n      jump\t// out\n        /* \"#utility.yul\":3853:4226   */\n    tag_39:\n        /* \"#utility.yul\":3996:4000   */\n      0x00\n        /* \"#utility.yul\":4034:4036   */\n      0x20\n        /* \"#utility.yul\":4023:4032   */\n      dup3\n        /* \"#utility.yul\":4019:4037   */\n      add\n        /* \"#utility.yul\":4011:4037   */\n      swap1\n      pop\n        /* \"#utility.yul\":4083:4092   */\n      dup2\n        /* \"#utility.yul\":4077:4081   */\n      dup2\n        /* \"#utility.yul\":4073:4093   */\n      sub\n        /* \"#utility.yul\":4069:4070   */\n      0x00\n        /* \"#utility.yul\":4058:4067   */\n      dup4\n        /* \"#utility.yul\":4054:4071   */\n      add\n        /* \"#utility.yul\":4047:4094   */\n      mstore\n        /* \"#utility.yul\":4111:4219   */\n      tag_154\n        /* \"#utility.yul\":4214:4218   */\n      dup2\n        /* \"#utility.yul\":4205:4211   */\n      dup5\n        /* \"#utility.yul\":4111:4219   */\n      tag_93\n      jump\t// in\n    tag_154:\n        /* \"#utility.yul\":4103:4219   */\n      swap1\n      pop\n        /* \"#utility.yul\":3853:4226   */\n      swap3\n      swap2\n      pop\n      pop\n      jump\t// out\n        /* \"#utility.yul\":4232:4375   */\n    tag_94:\n        /* \"#utility.yul\":4289:4294   */\n      0x00\n        /* \"#utility.yul\":4320:4326   */\n      dup2\n        /* \"#utility.yul\":4314:4327   */\n      mload\n        /* \"#utility.yul\":4305:4327   */\n      swap1\n      pop\n        /* \"#utility.yul\":4336:4369   */\n      tag_156\n        /* \"#utility.yul\":4363:4368   */\n      dup2\n        /* \"#utility.yul\":4336:4369   */\n      tag_85\n      jump\t// in\n    tag_156:\n        /* \"#utility.yul\":4232:4375   */\n      swap3\n      swap2\n      pop\n      pop\n      jump\t// out\n        /* \"#utility.yul\":4381:4732   */\n    tag_50:\n        /* \"#utility.yul\":4451:4457   */\n      0x00\n        /* \"#utility.yul\":4500:4502   */\n      0x20\n        /* \"#utility.yul\":4488:4497   */\n      dup3\n        /* \"#utility.yul\":4479:4486   */\n      dup5\n        /* \"#utility.yul\":4475:4498   */\n      sub\n        /* \"#utility.yul\":4471:4503   */\n      slt\n        /* \"#utility.yul\":4468:4587   */\n      iszero\n      tag_158\n      jumpi\n        /* \"#utility.yul\":4506:4585   */\n      tag_159\n      tag_79\n      jump\t// in\n    tag_159:\n        /* \"#utility.yul\":4468:4587   */\n    tag_158:\n        /* \"#utility.yul\":4626:4627   */\n      0x00\n        /* \"#utility.yul\":4651:4715   */\n      tag_160\n        /* \"#utility.yul\":4707:4714   */\n      dup5\n        /* \"#utility.yul\":4698:4704   */\n      dup3\n        /* \"#utility.yul\":4687:4696   */\n      dup6\n        /* \"#utility.yul\":4683:4705   */\n      add\n        /* \"#utility.yul\":4651:4715   */\n      tag_94\n      jump\t// in\n    tag_160:\n        /* \"#utility.yul\":4641:4715   */\n      swap2\n      pop\n        /* \"#utility.yul\":4597:4725   */\n      pop\n        /* \"#utility.yul\":4381:4732   */\n      swap3\n      swap2\n      pop\n      pop\n      jump\t// out\n        /* \"#utility.yul\":4738:4918   */\n    tag_95:\n        /* \"#utility.yul\":4786:4863   */\n      0x4e487b7100000000000000000000000000000000000000000000000000000000\n        /* \"#utility.yul\":4783:4784   */\n      0x00\n        /* \"#utility.yul\":4776:4864   */\n      mstore\n        /* \"#utility.yul\":4883:4887   */\n      0x11\n        /* \"#utility.yul\":4880:4881   */\n      0x04\n        /* \"#utility.yul\":4873:4888   */\n      mstore\n        /* \"#utility.yul\":4907:4911   */\n      0x24\n        /* \"#utility.yul\":4904:4905   */\n      0x00\n        /* \"#utility.yul\":4897:4912   */\n      revert\n        /* \"#utility.yul\":4924:5334   */\n    tag_55:\n        /* \"#utility.yul\":4964:4971   */\n      0x00\n        /* \"#utility.yul\":4987:5007   */\n      tag_163\n        /* \"#utility.yul\":5005:5006   */\n      dup3\n        /* \"#utility.yul\":4987:5007   */\n      tag_76\n      jump\t// in\n    tag_163:\n        /* \"#utility.yul\":4982:5007   */\n      swap2\n      pop\n        /* \"#utility.yul\":5021:5041   */\n      tag_164\n        /* \"#utility.yul\":5039:5040   */\n      dup4\n        /* \"#utility.yul\":5021:5041   */\n      tag_76\n      jump\t// in\n    tag_164:\n        /* \"#utility.yul\":5016:5041   */\n      swap3\n      pop\n        /* \"#utility.yul\":5076:5077   */\n      dup3\n        /* \"#utility.yul\":5073:5074   */\n      dup3\n        /* \"#utility.yul\":5069:5078   */\n      mul\n        /* \"#utility.yul\":5098:5128   */\n      tag_165\n        /* \"#utility.yul\":5116:5127   */\n      dup2\n        /* \"#utility.yul\":5098:5128   */\n      tag_76\n      jump\t// in\n    tag_165:\n        /* \"#utility.yul\":5087:5128   */\n      swap2\n      pop\n        /* \"#utility.yul\":5277:5278   */\n      dup3\n        /* \"#utility.yul\":5268:5275   */\n      dup3\n        /* \"#utility.yul\":5264:5279   */\n      div\n        /* \"#utility.yul\":5261:5262   */\n      dup5\n        /* \"#utility.yul\":5258:5280   */\n      eq\n        /* \"#utility.yul\":5238:5239   */\n      dup4\n        /* \"#utility.yul\":5231:5240   */\n      iszero\n        /* \"#utility.yul\":5211:5294   */\n      or\n        /* \"#utility.yul\":5188:5327   */\n      tag_166\n      jumpi\n        /* \"#utility.yul\":5307:5325   */\n      tag_167\n      tag_95\n      jump\t// in\n    tag_167:\n        /* \"#utility.yul\":5188:5327   */\n    tag_166:\n        /* \"#utility.yul\":4972:5334   */\n      pop\n        /* \"#utility.yul\":4924:5334   */\n      swap3\n      swap2\n      pop\n      pop\n      jump\t// out\n        /* \"#utility.yul\":5340:5520   */\n    tag_96:\n        /* \"#utility.yul\":5388:5465   */\n      0x4e487b7100000000000000000000000000000000000000000000000000000000\n        /* \"#utility.yul\":5385:5386   */\n      0x00\n        /* \"#utility.yul\":5378:5466   */\n      mstore\n        /* \"#utility.yul\":5485:5489   */\n      0x12\n        /* \"#utility.yul\":5482:5483   */\n      0x04\n        /* \"#utility.yul\":5475:5490   */\n      mstore\n        /* \"#utility.yul\":5509:5513   */\n      0x24\n        /* \"#utility.yul\":5506:5507   */\n      0x00\n        /* \"#utility.yul\":5499:5514   */\n      revert\n        /* \"#utility.yul\":5526:5711   */\n    tag_57:\n        /* \"#utility.yul\":5566:5567   */\n      0x00\n        /* \"#utility.yul\":5583:5603   */\n      tag_170\n        /* \"#utility.yul\":5601:5602   */\n      dup3\n        /* \"#utility.yul\":5583:5603   */\n      tag_76\n      jump\t// in\n    tag_170:\n        /* \"#utility.yul\":5578:5603   */\n      swap2\n      pop\n        /* \"#utility.yul\":5617:5637   */\n      tag_171\n        /* \"#utility.yul\":5635:5636   */\n      dup4\n        /* \"#utility.yul\":5617:5637   */\n      tag_76\n      jump\t// in\n    tag_171:\n        /* \"#utility.yul\":5612:5637   */\n      swap3\n      pop\n        /* \"#utility.yul\":5656:5657   */\n      dup3\n        /* \"#utility.yul\":5646:5681   */\n      tag_172\n      jumpi\n        /* \"#utility.yul\":5661:5679   */\n      tag_173\n      tag_96\n      jump\t// in\n    tag_173:\n        /* \"#utility.yul\":5646:5681   */\n    tag_172:\n        /* \"#utility.yul\":5703:5704   */\n      dup3\n        /* \"#utility.yul\":5700:5701   */\n      dup3\n        /* \"#utility.yul\":5696:5705   */\n      div\n        /* \"#utility.yul\":5691:5705   */\n      swap1\n      pop\n        /* \"#utility.yul\":5526:5711   */\n      swap3\n      swap2\n      pop\n      pop\n      jump\t// out\n        /* \"#utility.yul\":5717:5822   */\n    tag_97:\n        /* \"#utility.yul\":5753:5760   */\n      0x00\n        /* \"#utility.yul\":5793:5815   */\n      0xffffffffffffffffffff\n        /* \"#utility.yul\":5786:5791   */\n      dup3\n        /* \"#utility.yul\":5782:5816   */\n      and\n        /* \"#utility.yul\":5771:5816   */\n      swap1\n      pop\n        /* \"#utility.yul\":5717:5822   */\n      swap2\n      swap1\n      pop\n      jump\t// out\n        /* \"#utility.yul\":5828:5948   */\n    tag_98:\n        /* \"#utility.yul\":5900:5923   */\n      tag_176\n        /* \"#utility.yul\":5917:5922   */\n      dup2\n        /* \"#utility.yul\":5900:5923   */\n      tag_97\n      jump\t// in\n    tag_176:\n        /* \"#utility.yul\":5893:5898   */\n      dup2\n        /* \"#utility.yul\":5890:5924   */\n      eq\n        /* \"#utility.yul\":5880:5942   */\n      tag_177\n      jumpi\n        /* \"#utility.yul\":5938:5939   */\n      0x00\n        /* \"#utility.yul\":5935:5936   */\n      dup1\n        /* \"#utility.yul\":5928:5940   */\n      revert\n        /* \"#utility.yul\":5880:5942   */\n    tag_177:\n        /* \"#utility.yul\":5828:5948   */\n      pop\n      jump\t// out\n        /* \"#utility.yul\":5954:6095   */\n    tag_99:\n        /* \"#utility.yul\":6010:6015   */\n      0x00\n        /* \"#utility.yul\":6041:6047   */\n      dup2\n        /* \"#utility.yul\":6035:6048   */\n      mload\n        /* \"#utility.yul\":6026:6048   */\n      swap1\n      pop\n        /* \"#utility.yul\":6057:6089   */\n      tag_179\n        /* \"#utility.yul\":6083:6088   */\n      dup2\n        /* \"#utility.yul\":6057:6089   */\n      tag_98\n      jump\t// in\n    tag_179:\n        /* \"#utility.yul\":5954:6095   */\n      swap3\n      swap2\n      pop\n      pop\n      jump\t// out\n        /* \"#utility.yul\":6101:6177   */\n    tag_100:\n        /* \"#utility.yul\":6137:6144   */\n      0x00\n        /* \"#utility.yul\":6166:6171   */\n      dup2\n        /* \"#utility.yul\":6155:6171   */\n      swap1\n      pop\n        /* \"#utility.yul\":6101:6177   */\n      swap2\n      swap1\n      pop\n      jump\t// out\n        /* \"#utility.yul\":6183:6303   */\n    tag_101:\n        /* \"#utility.yul\":6255:6278   */\n      tag_182\n        /* \"#utility.yul\":6272:6277   */\n      dup2\n        /* \"#utility.yul\":6255:6278   */\n      tag_100\n      jump\t// in\n    tag_182:\n        /* \"#utility.yul\":6248:6253   */\n      dup2\n        /* \"#utility.yul\":6245:6279   */\n      eq\n        /* \"#utility.yul\":6235:6297   */\n      tag_183\n      jumpi\n        /* \"#utility.yul\":6293:6294   */\n      0x00\n        /* \"#utility.yul\":6290:6291   */\n      dup1\n        /* \"#utility.yul\":6283:6295   */\n      revert\n        /* \"#utility.yul\":6235:6297   */\n    tag_183:\n        /* \"#utility.yul\":6183:6303   */\n      pop\n      jump\t// out\n        /* \"#utility.yul\":6309:6450   */\n    tag_102:\n        /* \"#utility.yul\":6365:6370   */\n      0x00\n        /* \"#utility.yul\":6396:6402   */\n      dup2\n        /* \"#utility.yul\":6390:6403   */\n      mload\n        /* \"#utility.yul\":6381:6403   */\n      swap1\n      pop\n        /* \"#utility.yul\":6412:6444   */\n      tag_185\n        /* \"#utility.yul\":6438:6443   */\n      dup2\n        /* \"#utility.yul\":6412:6444   */\n      tag_101\n      jump\t// in\n    tag_185:\n        /* \"#utility.yul\":6309:6450   */\n      swap3\n      swap2\n      pop\n      pop\n      jump\t// out\n        /* \"#utility.yul\":6456:7427   */\n    tag_65:\n        /* \"#utility.yul\":6559:6565   */\n      0x00\n        /* \"#utility.yul\":6567:6573   */\n      dup1\n        /* \"#utility.yul\":6575:6581   */\n      0x00\n        /* \"#utility.yul\":6583:6589   */\n      dup1\n        /* \"#utility.yul\":6591:6597   */\n      0x00\n        /* \"#utility.yul\":6640:6643   */\n      0xa0\n        /* \"#utility.yul\":6628:6637   */\n      dup7\n        /* \"#utility.yul\":6619:6626   */\n      dup9\n        /* \"#utility.yul\":6615:6638   */\n      sub\n        /* \"#utility.yul\":6611:6644   */\n      slt\n        /* \"#utility.yul\":6608:6728   */\n      iszero\n      tag_187\n      jumpi\n        /* \"#utility.yul\":6647:6726   */\n      tag_188\n      tag_79\n      jump\t// in\n    tag_188:\n        /* \"#utility.yul\":6608:6728   */\n    tag_187:\n        /* \"#utility.yul\":6767:6768   */\n      0x00\n        /* \"#utility.yul\":6792:6855   */\n      tag_189\n        /* \"#utility.yul\":6847:6854   */\n      dup9\n        /* \"#utility.yul\":6838:6844   */\n      dup3\n        /* \"#utility.yul\":6827:6836   */\n      dup10\n        /* \"#utility.yul\":6823:6845   */\n      add\n        /* \"#utility.yul\":6792:6855   */\n      tag_99\n      jump\t// in\n    tag_189:\n        /* \"#utility.yul\":6782:6855   */\n      swap6\n      pop\n        /* \"#utility.yul\":6738:6865   */\n      pop\n        /* \"#utility.yul\":6904:6906   */\n      0x20\n        /* \"#utility.yul\":6930:6993   */\n      tag_190\n        /* \"#utility.yul\":6985:6992   */\n      dup9\n        /* \"#utility.yul\":6976:6982   */\n      dup3\n        /* \"#utility.yul\":6965:6974   */\n      dup10\n        /* \"#utility.yul\":6961:6983   */\n      add\n        /* \"#utility.yul\":6930:6993   */\n      tag_102\n      jump\t// in\n    tag_190:\n        /* \"#utility.yul\":6920:6993   */\n      swap5\n      pop\n        /* \"#utility.yul\":6875:7003   */\n      pop\n        /* \"#utility.yul\":7042:7044   */\n      0x40\n        /* \"#utility.yul\":7068:7132   */\n      tag_191\n        /* \"#utility.yul\":7124:7131   */\n      dup9\n        /* \"#utility.yul\":7115:7121   */\n      dup3\n        /* \"#utility.yul\":7104:7113   */\n      dup10\n        /* \"#utility.yul\":7100:7122   */\n      add\n        /* \"#utility.yul\":7068:7132   */\n      tag_94\n      jump\t// in\n    tag_191:\n        /* \"#utility.yul\":7058:7132   */\n      swap4\n      pop\n        /* \"#utility.yul\":7013:7142   */\n      pop\n        /* \"#utility.yul\":7181:7183   */\n      0x60\n        /* \"#utility.yul\":7207:7271   */\n      tag_192\n        /* \"#utility.yul\":7263:7270   */\n      dup9\n        /* \"#utility.yul\":7254:7260   */\n      dup3\n        /* \"#utility.yul\":7243:7252   */\n      dup10\n        /* \"#utility.yul\":7239:7261   */\n      add\n        /* \"#utility.yul\":7207:7271   */\n      tag_94\n      jump\t// in\n    tag_192:\n        /* \"#utility.yul\":7197:7271   */\n      swap3\n      pop\n        /* \"#utility.yul\":7152:7281   */\n      pop\n        /* \"#utility.yul\":7320:7323   */\n      0x80\n        /* \"#utility.yul\":7347:7410   */\n      tag_193\n        /* \"#utility.yul\":7402:7409   */\n      dup9\n        /* \"#utility.yul\":7393:7399   */\n      dup3\n        /* \"#utility.yul\":7382:7391   */\n      dup10\n        /* \"#utility.yul\":7378:7400   */\n      add\n        /* \"#utility.yul\":7347:7410   */\n      tag_99\n      jump\t// in\n    tag_193:\n        /* \"#utility.yul\":7337:7410   */\n      swap2\n      pop\n        /* \"#utility.yul\":7291:7420   */\n      pop\n        /* \"#utility.yul\":6456:7427   */\n      swap3\n      swap6\n      pop\n      swap3\n      swap6\n      swap1\n      swap4\n      pop\n      jump\t// out\n        /* \"#utility.yul\":7433:7989   */\n    tag_67:\n        /* \"#utility.yul\":7472:7479   */\n      0x00\n        /* \"#utility.yul\":7495:7514   */\n      tag_195\n        /* \"#utility.yul\":7512:7513   */\n      dup3\n        /* \"#utility.yul\":7495:7514   */\n      tag_100\n      jump\t// in\n    tag_195:\n        /* \"#utility.yul\":7490:7514   */\n      swap2\n      pop\n        /* \"#utility.yul\":7528:7547   */\n      tag_196\n        /* \"#utility.yul\":7545:7546   */\n      dup4\n        /* \"#utility.yul\":7528:7547   */\n      tag_100\n      jump\t// in\n    tag_196:\n        /* \"#utility.yul\":7523:7547   */\n      swap3\n      pop\n        /* \"#utility.yul\":7582:7583   */\n      dup3\n        /* \"#utility.yul\":7579:7580   */\n      dup3\n        /* \"#utility.yul\":7575:7584   */\n      mul\n        /* \"#utility.yul\":7604:7633   */\n      tag_197\n        /* \"#utility.yul\":7621:7632   */\n      dup2\n        /* \"#utility.yul\":7604:7633   */\n      tag_100\n      jump\t// in\n    tag_197:\n        /* \"#utility.yul\":7593:7633   */\n      swap2\n      pop\n        /* \"#utility.yul\":7691:7757   */\n      0x8000000000000000000000000000000000000000000000000000000000000000\n        /* \"#utility.yul\":7688:7689   */\n      dup5\n        /* \"#utility.yul\":7685:7758   */\n      eq\n        /* \"#utility.yul\":7681:7682   */\n      0x00\n        /* \"#utility.yul\":7678:7679   */\n      dup5\n        /* \"#utility.yul\":7674:7683   */\n      slt\n        /* \"#utility.yul\":7670:7759   */\n      and\n        /* \"#utility.yul\":7667:7782   */\n      iszero\n      tag_198\n      jumpi\n        /* \"#utility.yul\":7762:7780   */\n      tag_199\n      tag_95\n      jump\t// in\n    tag_199:\n        /* \"#utility.yul\":7667:7782   */\n    tag_198:\n        /* \"#utility.yul\":7932:7933   */\n      dup3\n        /* \"#utility.yul\":7923:7930   */\n      dup3\n        /* \"#utility.yul\":7918:7934   */\n      sdiv\n        /* \"#utility.yul\":7915:7916   */\n      dup5\n        /* \"#utility.yul\":7912:7935   */\n      eq\n        /* \"#utility.yul\":7892:7893   */\n      dup4\n        /* \"#utility.yul\":7885:7894   */\n      iszero\n        /* \"#utility.yul\":7865:7949   */\n      or\n        /* \"#utility.yul\":7842:7982   */\n      tag_200\n      jumpi\n        /* \"#utility.yul\":7962:7980   */\n      tag_201\n      tag_95\n      jump\t// in\n    tag_201:\n        /* \"#utility.yul\":7842:7982   */\n    tag_200:\n        /* \"#utility.yul\":7480:7989   */\n      pop\n        /* \"#utility.yul\":7433:7989   */\n      swap3\n      swap2\n      pop\n      pop\n      jump\t// out\n        /* \"#utility.yul\":7995:8164   */\n    tag_103:\n        /* \"#utility.yul\":8079:8090   */\n      0x00\n        /* \"#utility.yul\":8113:8119   */\n      dup3\n        /* \"#utility.yul\":8108:8111   */\n      dup3\n        /* \"#utility.yul\":8101:8120   */\n      mstore\n        /* \"#utility.yul\":8153:8157   */\n      0x20\n        /* \"#utility.yul\":8148:8151   */\n      dup3\n        /* \"#utility.yul\":8144:8158   */\n      add\n        /* \"#utility.yul\":8129:8158   */\n      swap1\n      pop\n        /* \"#utility.yul\":7995:8164   */\n      swap3\n      swap2\n      pop\n      pop\n      jump\t// out\n        /* \"#utility.yul\":8170:8344   */\n    tag_104:\n        /* \"#utility.yul\":8310:8336   */\n      0x4e6f7420656e6f75676820455448207761732073656e742e0000000000000000\n        /* \"#utility.yul\":8306:8307   */\n      0x00\n        /* \"#utility.yul\":8298:8304   */\n      dup3\n        /* \"#utility.yul\":8294:8308   */\n      add\n        /* \"#utility.yul\":8287:8337   */\n      mstore\n        /* \"#utility.yul\":8170:8344   */\n      pop\n      jump\t// out\n        /* \"#utility.yul\":8350:8716   */\n    tag_105:\n        /* \"#utility.yul\":8492:8495   */\n      0x00\n        /* \"#utility.yul\":8513:8580   */\n      tag_205\n        /* \"#utility.yul\":8577:8579   */\n      0x18\n        /* \"#utility.yul\":8572:8575   */\n      dup4\n        /* \"#utility.yul\":8513:8580   */\n      tag_103\n      jump\t// in\n    tag_205:\n        /* \"#utility.yul\":8506:8580   */\n      swap2\n      pop\n        /* \"#utility.yul\":8589:8682   */\n      tag_206\n        /* \"#utility.yul\":8678:8681   */\n      dup3\n        /* \"#utility.yul\":8589:8682   */\n      tag_104\n      jump\t// in\n    tag_206:\n        /* \"#utility.yul\":8707:8709   */\n      0x20\n        /* \"#utility.yul\":8702:8705   */\n      dup3\n        /* \"#utility.yul\":8698:8710   */\n      add\n        /* \"#utility.yul\":8691:8710   */\n      swap1\n      pop\n        /* \"#utility.yul\":8350:8716   */\n      swap2\n      swap1\n      pop\n      jump\t// out\n        /* \"#utility.yul\":8722:9141   */\n    tag_72:\n        /* \"#utility.yul\":8888:8892   */\n      0x00\n        /* \"#utility.yul\":8926:8928   */\n      0x20\n        /* \"#utility.yul\":8915:8924   */\n      dup3\n        /* \"#utility.yul\":8911:8929   */\n      add\n        /* \"#utility.yul\":8903:8929   */\n      swap1\n      pop\n        /* \"#utility.yul\":8975:8984   */\n      dup2\n        /* \"#utility.yul\":8969:8973   */\n      dup2\n        /* \"#utility.yul\":8965:8985   */\n      sub\n        /* \"#utility.yul\":8961:8962   */\n      0x00\n        /* \"#utility.yul\":8950:8959   */\n      dup4\n        /* \"#utility.yul\":8946:8963   */\n      add\n        /* \"#utility.yul\":8939:8986   */\n      mstore\n        /* \"#utility.yul\":9003:9134   */\n      tag_208\n        /* \"#utility.yul\":9129:9133   */\n      dup2\n        /* \"#utility.yul\":9003:9134   */\n      tag_105\n      jump\t// in\n    tag_208:\n        /* \"#utility.yul\":8995:9134   */\n      swap1\n      pop\n        /* \"#utility.yul\":8722:9141   */\n      swap2\n      swap1\n      pop\n      jump\t// out\n        /* \"#utility.yul\":9147:9338   */\n    tag_75:\n        /* \"#utility.yul\":9187:9190   */\n      0x00\n        /* \"#utility.yul\":9206:9226   */\n      tag_210\n        /* \"#utility.yul\":9224:9225   */\n      dup3\n        /* \"#utility.yul\":9206:9226   */\n      tag_76\n      jump\t// in\n    tag_210:\n        /* \"#utility.yul\":9201:9226   */\n      swap2\n      pop\n        /* \"#utility.yul\":9240:9260   */\n      tag_211\n        /* \"#utility.yul\":9258:9259   */\n      dup4\n        /* \"#utility.yul\":9240:9260   */\n      tag_76\n      jump\t// in\n    tag_211:\n        /* \"#utility.yul\":9235:9260   */\n      swap3\n      pop\n        /* \"#utility.yul\":9283:9284   */\n      dup3\n        /* \"#utility.yul\":9280:9281   */\n      dup3\n        /* \"#utility.yul\":9276:9285   */\n      add\n        /* \"#utility.yul\":9269:9285   */\n      swap1\n      pop\n        /* \"#utility.yul\":9304:9307   */\n      dup1\n        /* \"#utility.yul\":9301:9302   */\n      dup3\n        /* \"#utility.yul\":9298:9308   */\n      gt\n        /* \"#utility.yul\":9295:9331   */\n      iszero\n      tag_212\n      jumpi\n        /* \"#utility.yul\":9311:9329   */\n      tag_213\n      tag_95\n      jump\t// in\n    tag_213:\n        /* \"#utility.yul\":9295:9331   */\n    tag_212:\n        /* \"#utility.yul\":9147:9338   */\n      swap3\n      swap2\n      pop\n      pop\n      jump\t// out\n\n    auxdata: 0xa264697066735822122082a2bc67b2bf1b2c58469cd4a9562a156fd950ffd873969653e57920b882a0ca64736f6c63430008120033\n}\n",
				"bytecode": {
					"linkReferences": {},
					"object": "6080604052674563918244f4000060005534801561001c57600080fd5b50610a978061002c6000396000f3fe60806040526004361061007b5760003560e01c80636e5b6b281161004e5780636e5b6b281461012a5780638edd6eb61461016757806398d5fdca14610192578063b60d4288146101bd5761007b565b8063098de820146100805780630d8e6e2c146100ab5780633ccfd60b146100d65780633e47d6f3146100ed575b600080fd5b34801561008c57600080fd5b506100956101c7565b6040516100a2919061054e565b60405180910390f35b3480156100b757600080fd5b506100c06101cd565b6040516100cd919061054e565b60405180910390f35b3480156100e257600080fd5b506100eb61025c565b005b3480156100f957600080fd5b50610114600480360381019061010f91906105cc565b61025e565b604051610121919061054e565b60405180910390f35b34801561013657600080fd5b50610151600480360381019061014c9190610625565b610276565b60405161015e919061054e565b60405180910390f35b34801561017357600080fd5b5061017c6102b0565b6040516101899190610710565b60405180910390f35b34801561019e57600080fd5b506101a761033e565b6040516101b4919061054e565b60405180910390f35b6101c56103f5565b005b60005481565b60008073694aa1769357215de4fac081bf1f309adc32530690508073ffffffffffffffffffffffffffffffffffffffff166354fd4d506040518163ffffffff1660e01b8152600401602060405180830381865afa158015610232573d6000803e3d6000fd5b505050506040513d601f19601f820116820180604052508101906102569190610747565b91505090565b565b60026020528060005260406000206000915090505481565b60008061028161033e565b90506000670de0b6b3a7640000828561029a91906107a3565b6102a49190610814565b90508092505050919050565b6060600180548060200260200160405190810160405280929190818152602001828054801561033457602002820191906000526020600020905b8160009054906101000a900473ffffffffffffffffffffffffffffffffffffffff1673ffffffffffffffffffffffffffffffffffffffff16815260200190600101908083116102ea575b5050505050905090565b60008073694aa1769357215de4fac081bf1f309adc325306905060008060008060008573ffffffffffffffffffffffffffffffffffffffff1663feaf968c6040518163ffffffff1660e01b815260040160a060405180830381865afa1580156103ab573d6000803e3d6000fd5b505050506040513d601f19601f820116820180604052508101906103cf91906108bd565b945094509450945094506402540be400846103ea9190610938565b965050505050505090565b60005461040134610276565b1015610442576040517f08c379a000000000000000000000000000000000000000000000000000000000815260040161043990610a0d565b60405180910390fd5b6001339080600181540180825580915050600190039060005260206000200160009091909190916101000a81548173ffffffffffffffffffffffffffffffffffffffff021916908373ffffffffffffffffffffffffffffffffffffffff16021790555034600260003373ffffffffffffffffffffffffffffffffffffffff1673ffffffffffffffffffffffffffffffffffffffff168152602001908152602001600020546104f09190610a2d565b600260003373ffffffffffffffffffffffffffffffffffffffff1673ffffffffffffffffffffffffffffffffffffffff16815260200190815260200160002081905550565b6000819050919050565b61054881610535565b82525050565b6000602082019050610563600083018461053f565b92915050565b600080fd5b600073ffffffffffffffffffffffffffffffffffffffff82169050919050565b60006105998261056e565b9050919050565b6105a98161058e565b81146105b457600080fd5b50565b6000813590506105c6816105a0565b92915050565b6000602082840312156105e2576105e1610569565b5b60006105f0848285016105b7565b91505092915050565b61060281610535565b811461060d57600080fd5b50565b60008135905061061f816105f9565b92915050565b60006020828403121561063b5761063a610569565b5b600061064984828501610610565b91505092915050565b600081519050919050565b600082825260208201905092915050565b6000819050602082019050919050565b6106878161058e565b82525050565b6000610699838361067e565b60208301905092915050565b6000602082019050919050565b60006106bd82610652565b6106c7818561065d565b93506106d28361066e565b8060005b838110156107035781516106ea888261068d565b97506106f5836106a5565b9250506001810190506106d6565b5085935050505092915050565b6000602082019050818103600083015261072a81846106b2565b905092915050565b600081519050610741816105f9565b92915050565b60006020828403121561075d5761075c610569565b5b600061076b84828501610732565b91505092915050565b7f4e487b7100000000000000000000000000000000000000000000000000000000600052601160045260246000fd5b60006107ae82610535565b91506107b983610535565b92508282026107c781610535565b915082820484148315176107de576107dd610774565b5b5092915050565b7f4e487b7100000000000000000000000000000000000000000000000000000000600052601260045260246000fd5b600061081f82610535565b915061082a83610535565b92508261083a576108396107e5565b5b828204905092915050565b600069ffffffffffffffffffff82169050919050565b61086481610845565b811461086f57600080fd5b50565b6000815190506108818161085b565b92915050565b6000819050919050565b61089a81610887565b81146108a557600080fd5b50565b6000815190506108b781610891565b92915050565b600080600080600060a086880312156108d9576108d8610569565b5b60006108e788828901610872565b95505060206108f8888289016108a8565b945050604061090988828901610732565b935050606061091a88828901610732565b925050608061092b88828901610872565b9150509295509295909350565b600061094382610887565b915061094e83610887565b925082820261095c81610887565b91507f8000000000000000000000000000000000000000000000000000000000000000841460008412161561099457610993610774565b5b82820584148315176109a9576109a8610774565b5b5092915050565b600082825260208201905092915050565b7f4e6f7420656e6f75676820455448207761732073656e742e0000000000000000600082015250565b60006109f76018836109b0565b9150610a02826109c1565b602082019050919050565b60006020820190508181036000830152610a26816109ea565b9050919050565b6000610a3882610535565b9150610a4383610535565b9250828201905080821115610a5b57610a5a610774565b5b9291505056fea264697066735822122082a2bc67b2bf1b2c58469cd4a9562a156fd950ffd873969653e57920b882a0ca64736f6c63430008120033",
					"opcodes": "PUSH1 0x80 PUSH1 0x40 MSTORE PUSH8 0x4563918244F40000 PUSH1 0x0 SSTORE CALLVALUE DUP1 ISZERO PUSH2 0x1C JUMPI PUSH1 0x0 DUP1 REVERT JUMPDEST POP PUSH2 0xA97 DUP1 PUSH2 0x2C PUSH1 0x0 CODECOPY PUSH1 0x0 RETURN INVALID PUSH1 0x80 PUSH1 0x40 MSTORE PUSH1 0x4 CALLDATASIZE LT PUSH2 0x7B JUMPI PUSH1 0x0 CALLDATALOAD PUSH1 0xE0 SHR DUP1 PUSH4 0x6E5B6B28 GT PUSH2 0x4E JUMPI DUP1 PUSH4 0x6E5B6B28 EQ PUSH2 0x12A JUMPI DUP1 PUSH4 0x8EDD6EB6 EQ PUSH2 0x167 JUMPI DUP1 PUSH4 0x98D5FDCA EQ PUSH2 0x192 JUMPI DUP1 PUSH4 0xB60D4288 EQ PUSH2 0x1BD JUMPI PUSH2 0x7B JUMP JUMPDEST DUP1 PUSH4 0x98DE820 EQ PUSH2 0x80 JUMPI DUP1 PUSH4 0xD8E6E2C EQ PUSH2 0xAB JUMPI DUP1 PUSH4 0x3CCFD60B EQ PUSH2 0xD6 JUMPI DUP1 PUSH4 0x3E47D6F3 EQ PUSH2 0xED JUMPI JUMPDEST PUSH1 0x0 DUP1 REVERT JUMPDEST CALLVALUE DUP1 ISZERO PUSH2 0x8C JUMPI PUSH1 0x0 DUP1 REVERT JUMPDEST POP PUSH2 0x95 PUSH2 0x1C7 JUMP JUMPDEST PUSH1 0x40 MLOAD PUSH2 0xA2 SWAP2 SWAP1 PUSH2 0x54E JUMP JUMPDEST PUSH1 0x40 MLOAD DUP1 SWAP2 SUB SWAP1 RETURN JUMPDEST CALLVALUE DUP1 ISZERO PUSH2 0xB7 JUMPI PUSH1 0x0 DUP1 REVERT JUMPDEST POP PUSH2 0xC0 PUSH2 0x1CD JUMP JUMPDEST PUSH1 0x40 MLOAD PUSH2 0xCD SWAP2 SWAP1 PUSH2 0x54E JUMP JUMPDEST PUSH1 0x40 MLOAD DUP1 SWAP2 SUB SWAP1 RETURN JUMPDEST CALLVALUE DUP1 ISZERO PUSH2 0xE2 JUMPI PUSH1 0x0 DUP1 REVERT JUMPDEST POP PUSH2 0xEB PUSH2 0x25C JUMP JUMPDEST STOP JUMPDEST CALLVALUE DUP1 ISZERO PUSH2 0xF9 JUMPI PUSH1 0x0 DUP1 REVERT JUMPDEST POP PUSH2 0x114 PUSH1 0x4 DUP1 CALLDATASIZE SUB DUP2 ADD SWAP1 PUSH2 0x10F SWAP2 SWAP1 PUSH2 0x5CC JUMP JUMPDEST PUSH2 0x25E JUMP JUMPDEST PUSH1 0x40 MLOAD PUSH2 0x121 SWAP2 SWAP1 PUSH2 0x54E JUMP JUMPDEST PUSH1 0x40 MLOAD DUP1 SWAP2 SUB SWAP1 RETURN JUMPDEST CALLVALUE DUP1 ISZERO PUSH2 0x136 JUMPI PUSH1 0x0 DUP1 REVERT JUMPDEST POP PUSH2 0x151 PUSH1 0x4 DUP1 CALLDATASIZE SUB DUP2 ADD SWAP1 PUSH2 0x14C SWAP2 SWAP1 PUSH2 0x625 JUMP JUMPDEST PUSH2 0x276 JUMP JUMPDEST PUSH1 0x40 MLOAD PUSH2 0x15E SWAP2 SWAP1 PUSH2 0x54E JUMP JUMPDEST PUSH1 0x40 MLOAD DUP1 SWAP2 SUB SWAP1 RETURN JUMPDEST CALLVALUE DUP1 ISZERO PUSH2 0x173 JUMPI PUSH1 0x0 DUP1 REVERT JUMPDEST POP PUSH2 0x17C PUSH2 0x2B0 JUMP JUMPDEST PUSH1 0x40 MLOAD PUSH2 0x189 SWAP2 SWAP1 PUSH2 0x710 JUMP JUMPDEST PUSH1 0x40 MLOAD DUP1 SWAP2 SUB SWAP1 RETURN JUMPDEST CALLVALUE DUP1 ISZERO PUSH2 0x19E JUMPI PUSH1 0x0 DUP1 REVERT JUMPDEST POP PUSH2 0x1A7 PUSH2 0x33E JUMP JUMPDEST PUSH1 0x40 MLOAD PUSH2 0x1B4 SWAP2 SWAP1 PUSH2 0x54E JUMP JUMPDEST PUSH1 0x40 MLOAD DUP1 SWAP2 SUB SWAP1 RETURN JUMPDEST PUSH2 0x1C5 PUSH2 0x3F5 JUMP JUMPDEST STOP JUMPDEST PUSH1 0x0 SLOAD DUP2 JUMP JUMPDEST PUSH1 0x0 DUP1 PUSH20 0x694AA1769357215DE4FAC081BF1F309ADC325306 SWAP1 POP DUP1 PUSH20 0xFFFFFFFFFFFFFFFFFFFFFFFFFFFFFFFFFFFFFFFF AND PUSH4 0x54FD4D50 PUSH1 0x40 MLOAD DUP2 PUSH4 0xFFFFFFFF AND PUSH1 0xE0 SHL DUP2 MSTORE PUSH1 0x4 ADD PUSH1 0x20 PUSH1 0x40 MLOAD DUP1 DUP4 SUB DUP2 DUP7 GAS STATICCALL ISZERO DUP1 ISZERO PUSH2 0x232 JUMPI RETURNDATASIZE PUSH1 0x0 DUP1 RETURNDATACOPY RETURNDATASIZE PUSH1 0x0 REVERT JUMPDEST POP POP POP POP PUSH1 0x40 MLOAD RETURNDATASIZE PUSH1 0x1F NOT PUSH1 0x1F DUP3 ADD AND DUP3 ADD DUP1 PUSH1 0x40 MSTORE POP DUP2 ADD SWAP1 PUSH2 0x256 SWAP2 SWAP1 PUSH2 0x747 JUMP JUMPDEST SWAP2 POP POP SWAP1 JUMP JUMPDEST JUMP JUMPDEST PUSH1 0x2 PUSH1 0x20 MSTORE DUP1 PUSH1 0x0 MSTORE PUSH1 0x40 PUSH1 0x0 KECCAK256 PUSH1 0x0 SWAP2 POP SWAP1 POP SLOAD DUP2 JUMP JUMPDEST PUSH1 0x0 DUP1 PUSH2 0x281 PUSH2 0x33E JUMP JUMPDEST SWAP1 POP PUSH1 0x0 PUSH8 0xDE0B6B3A7640000 DUP3 DUP6 PUSH2 0x29A SWAP2 SWAP1 PUSH2 0x7A3 JUMP JUMPDEST PUSH2 0x2A4 SWAP2 SWAP1 PUSH2 0x814 JUMP JUMPDEST SWAP1 POP DUP1 SWAP3 POP POP POP SWAP2 SWAP1 POP JUMP JUMPDEST PUSH1 0x60 PUSH1 0x1 DUP1 SLOAD DUP1 PUSH1 0x20 MUL PUSH1 0x20 ADD PUSH1 0x40 MLOAD SWAP1 DUP2 ADD PUSH1 0x40 MSTORE DUP1 SWAP3 SWAP2 SWAP1 DUP2 DUP2 MSTORE PUSH1 0x20 ADD DUP3 DUP1 SLOAD DUP1 ISZERO PUSH2 0x334 JUMPI PUSH1 0x20 MUL DUP3 ADD SWAP2 SWAP1 PUSH1 0x0 MSTORE PUSH1 0x20 PUSH1 0x0 KECCAK256 SWAP1 JUMPDEST DUP2 PUSH1 0x0 SWAP1 SLOAD SWAP1 PUSH2 0x100 EXP SWAP1 DIV PUSH20 0xFFFFFFFFFFFFFFFFFFFFFFFFFFFFFFFFFFFFFFFF AND PUSH20 0xFFFFFFFFFFFFFFFFFFFFFFFFFFFFFFFFFFFFFFFF AND DUP2 MSTORE PUSH1 0x20 ADD SWAP1 PUSH1 0x1 ADD SWAP1 DUP1 DUP4 GT PUSH2 0x2EA JUMPI JUMPDEST POP POP POP POP POP SWAP1 POP SWAP1 JUMP JUMPDEST PUSH1 0x0 DUP1 PUSH20 0x694AA1769357215DE4FAC081BF1F309ADC325306 SWAP1 POP PUSH1 0x0 DUP1 PUSH1 0x0 DUP1 PUSH1 0x0 DUP6 PUSH20 0xFFFFFFFFFFFFFFFFFFFFFFFFFFFFFFFFFFFFFFFF AND PUSH4 0xFEAF968C PUSH1 0x40 MLOAD DUP2 PUSH4 0xFFFFFFFF AND PUSH1 0xE0 SHL DUP2 MSTORE PUSH1 0x4 ADD PUSH1 0xA0 PUSH1 0x40 MLOAD DUP1 DUP4 SUB DUP2 DUP7 GAS STATICCALL ISZERO DUP1 ISZERO PUSH2 0x3AB JUMPI RETURNDATASIZE PUSH1 0x0 DUP1 RETURNDATACOPY RETURNDATASIZE PUSH1 0x0 REVERT JUMPDEST POP POP POP POP PUSH1 0x40 MLOAD RETURNDATASIZE PUSH1 0x1F NOT PUSH1 0x1F DUP3 ADD AND DUP3 ADD DUP1 PUSH1 0x40 MSTORE POP DUP2 ADD SWAP1 PUSH2 0x3CF SWAP2 SWAP1 PUSH2 0x8BD JUMP JUMPDEST SWAP5 POP SWAP5 POP SWAP5 POP SWAP5 POP SWAP5 POP PUSH5 0x2540BE400 DUP5 PUSH2 0x3EA SWAP2 SWAP1 PUSH2 0x938 JUMP JUMPDEST SWAP7 POP POP POP POP POP POP POP SWAP1 JUMP JUMPDEST PUSH1 0x0 SLOAD PUSH2 0x401 CALLVALUE PUSH2 0x276 JUMP JUMPDEST LT ISZERO PUSH2 0x442 JUMPI PUSH1 0x40 MLOAD PUSH32 0x8C379A000000000000000000000000000000000000000000000000000000000 DUP2 MSTORE PUSH1 0x4 ADD PUSH2 0x439 SWAP1 PUSH2 0xA0D JUMP JUMPDEST PUSH1 0x40 MLOAD DUP1 SWAP2 SUB SWAP1 REVERT JUMPDEST PUSH1 0x1 CALLER SWAP1 DUP1 PUSH1 0x1 DUP2 SLOAD ADD DUP1 DUP3 SSTORE DUP1 SWAP2 POP POP PUSH1 0x1 SWAP1 SUB SWAP1 PUSH1 0x0 MSTORE PUSH1 0x20 PUSH1 0x0 KECCAK256 ADD PUSH1 0x0 SWAP1 SWAP2 SWAP1 SWAP2 SWAP1 SWAP2 PUSH2 0x100 EXP DUP2 SLOAD DUP2 PUSH20 0xFFFFFFFFFFFFFFFFFFFFFFFFFFFFFFFFFFFFFFFF MUL NOT AND SWAP1 DUP4 PUSH20 0xFFFFFFFFFFFFFFFFFFFFFFFFFFFFFFFFFFFFFFFF AND MUL OR SWAP1 SSTORE POP CALLVALUE PUSH1 0x2 PUSH1 0x0 CALLER PUSH20 0xFFFFFFFFFFFFFFFFFFFFFFFFFFFFFFFFFFFFFFFF AND PUSH20 0xFFFFFFFFFFFFFFFFFFFFFFFFFFFFFFFFFFFFFFFF AND DUP2 MSTORE PUSH1 0x20 ADD SWAP1 DUP2 MSTORE PUSH1 0x20 ADD PUSH1 0x0 KECCAK256 SLOAD PUSH2 0x4F0 SWAP2 SWAP1 PUSH2 0xA2D JUMP JUMPDEST PUSH1 0x2 PUSH1 0x0 CALLER PUSH20 0xFFFFFFFFFFFFFFFFFFFFFFFFFFFFFFFFFFFFFFFF AND PUSH20 0xFFFFFFFFFFFFFFFFFFFFFFFFFFFFFFFFFFFFFFFF AND DUP2 MSTORE PUSH1 0x20 ADD SWAP1 DUP2 MSTORE PUSH1 0x20 ADD PUSH1 0x0 KECCAK256 DUP2 SWAP1 SSTORE POP JUMP JUMPDEST PUSH1 0x0 DUP2 SWAP1 POP SWAP2 SWAP1 POP JUMP JUMPDEST PUSH2 0x548 DUP2 PUSH2 0x535 JUMP JUMPDEST DUP3 MSTORE POP POP JUMP JUMPDEST PUSH1 0x0 PUSH1 0x20 DUP3 ADD SWAP1 POP PUSH2 0x563 PUSH1 0x0 DUP4 ADD DUP5 PUSH2 0x53F JUMP JUMPDEST SWAP3 SWAP2 POP POP JUMP JUMPDEST PUSH1 0x0 DUP1 REVERT JUMPDEST PUSH1 0x0 PUSH20 0xFFFFFFFFFFFFFFFFFFFFFFFFFFFFFFFFFFFFFFFF DUP3 AND SWAP1 POP SWAP2 SWAP1 POP JUMP JUMPDEST PUSH1 0x0 PUSH2 0x599 DUP3 PUSH2 0x56E JUMP JUMPDEST SWAP1 POP SWAP2 SWAP1 POP JUMP JUMPDEST PUSH2 0x5A9 DUP2 PUSH2 0x58E JUMP JUMPDEST DUP2 EQ PUSH2 0x5B4 JUMPI PUSH1 0x0 DUP1 REVERT JUMPDEST POP JUMP JUMPDEST PUSH1 0x0 DUP2 CALLDATALOAD SWAP1 POP PUSH2 0x5C6 DUP2 PUSH2 0x5A0 JUMP JUMPDEST SWAP3 SWAP2 POP POP JUMP JUMPDEST PUSH1 0x0 PUSH1 0x20 DUP3 DUP5 SUB SLT ISZERO PUSH2 0x5E2 JUMPI PUSH2 0x5E1 PUSH2 0x569 JUMP JUMPDEST JUMPDEST PUSH1 0x0 PUSH2 0x5F0 DUP5 DUP3 DUP6 ADD PUSH2 0x5B7 JUMP JUMPDEST SWAP2 POP POP SWAP3 SWAP2 POP POP JUMP JUMPDEST PUSH2 0x602 DUP2 PUSH2 0x535 JUMP JUMPDEST DUP2 EQ PUSH2 0x60D JUMPI PUSH1 0x0 DUP1 REVERT JUMPDEST POP JUMP JUMPDEST PUSH1 0x0 DUP2 CALLDATALOAD SWAP1 POP PUSH2 0x61F DUP2 PUSH2 0x5F9 JUMP JUMPDEST SWAP3 SWAP2 POP POP JUMP JUMPDEST PUSH1 0x0 PUSH1 0x20 DUP3 DUP5 SUB SLT ISZERO PUSH2 0x63B JUMPI PUSH2 0x63A PUSH2 0x569 JUMP JUMPDEST JUMPDEST PUSH1 0x0 PUSH2 0x649 DUP5 DUP3 DUP6 ADD PUSH2 0x610 JUMP JUMPDEST SWAP2 POP POP SWAP3 SWAP2 POP POP JUMP JUMPDEST PUSH1 0x0 DUP2 MLOAD SWAP1 POP SWAP2 SWAP1 POP JUMP JUMPDEST PUSH1 0x0 DUP3 DUP3 MSTORE PUSH1 0x20 DUP3 ADD SWAP1 POP SWAP3 SWAP2 POP POP JUMP JUMPDEST PUSH1 0x0 DUP2 SWAP1 POP PUSH1 0x20 DUP3 ADD SWAP1 POP SWAP2 SWAP1 POP JUMP JUMPDEST PUSH2 0x687 DUP2 PUSH2 0x58E JUMP JUMPDEST DUP3 MSTORE POP POP JUMP JUMPDEST PUSH1 0x0 PUSH2 0x699 DUP4 DUP4 PUSH2 0x67E JUMP JUMPDEST PUSH1 0x20 DUP4 ADD SWAP1 POP SWAP3 SWAP2 POP POP JUMP JUMPDEST PUSH1 0x0 PUSH1 0x20 DUP3 ADD SWAP1 POP SWAP2 SWAP1 POP JUMP JUMPDEST PUSH1 0x0 PUSH2 0x6BD DUP3 PUSH2 0x652 JUMP JUMPDEST PUSH2 0x6C7 DUP2 DUP6 PUSH2 0x65D JUMP JUMPDEST SWAP4 POP PUSH2 0x6D2 DUP4 PUSH2 0x66E JUMP JUMPDEST DUP1 PUSH1 0x0 JUMPDEST DUP4 DUP2 LT ISZERO PUSH2 0x703 JUMPI DUP2 MLOAD PUSH2 0x6EA DUP9 DUP3 PUSH2 0x68D JUMP JUMPDEST SWAP8 POP PUSH2 0x6F5 DUP4 PUSH2 0x6A5 JUMP JUMPDEST SWAP3 POP POP PUSH1 0x1 DUP2 ADD SWAP1 POP PUSH2 0x6D6 JUMP JUMPDEST POP DUP6 SWAP4 POP POP POP POP SWAP3 SWAP2 POP POP JUMP JUMPDEST PUSH1 0x0 PUSH1 0x20 DUP3 ADD SWAP1 POP DUP2 DUP2 SUB PUSH1 0x0 DUP4 ADD MSTORE PUSH2 0x72A DUP2 DUP5 PUSH2 0x6B2 JUMP JUMPDEST SWAP1 POP SWAP3 SWAP2 POP POP JUMP JUMPDEST PUSH1 0x0 DUP2 MLOAD SWAP1 POP PUSH2 0x741 DUP2 PUSH2 0x5F9 JUMP JUMPDEST SWAP3 SWAP2 POP POP JUMP JUMPDEST PUSH1 0x0 PUSH1 0x20 DUP3 DUP5 SUB SLT ISZERO PUSH2 0x75D JUMPI PUSH2 0x75C PUSH2 0x569 JUMP JUMPDEST JUMPDEST PUSH1 0x0 PUSH2 0x76B DUP5 DUP3 DUP6 ADD PUSH2 0x732 JUMP JUMPDEST SWAP2 POP POP SWAP3 SWAP2 POP POP JUMP JUMPDEST PUSH32 0x4E487B7100000000000000000000000000000000000000000000000000000000 PUSH1 0x0 MSTORE PUSH1 0x11 PUSH1 0x4 MSTORE PUSH1 0x24 PUSH1 0x0 REVERT JUMPDEST PUSH1 0x0 PUSH2 0x7AE DUP3 PUSH2 0x535 JUMP JUMPDEST SWAP2 POP PUSH2 0x7B9 DUP4 PUSH2 0x535 JUMP JUMPDEST SWAP3 POP DUP3 DUP3 MUL PUSH2 0x7C7 DUP2 PUSH2 0x535 JUMP JUMPDEST SWAP2 POP DUP3 DUP3 DIV DUP5 EQ DUP4 ISZERO OR PUSH2 0x7DE JUMPI PUSH2 0x7DD PUSH2 0x774 JUMP JUMPDEST JUMPDEST POP SWAP3 SWAP2 POP POP JUMP JUMPDEST PUSH32 0x4E487B7100000000000000000000000000000000000000000000000000000000 PUSH1 0x0 MSTORE PUSH1 0x12 PUSH1 0x4 MSTORE PUSH1 0x24 PUSH1 0x0 REVERT JUMPDEST PUSH1 0x0 PUSH2 0x81F DUP3 PUSH2 0x535 JUMP JUMPDEST SWAP2 POP PUSH2 0x82A DUP4 PUSH2 0x535 JUMP JUMPDEST SWAP3 POP DUP3 PUSH2 0x83A JUMPI PUSH2 0x839 PUSH2 0x7E5 JUMP JUMPDEST JUMPDEST DUP3 DUP3 DIV SWAP1 POP SWAP3 SWAP2 POP POP JUMP JUMPDEST PUSH1 0x0 PUSH10 0xFFFFFFFFFFFFFFFFFFFF DUP3 AND SWAP1 POP SWAP2 SWAP1 POP JUMP JUMPDEST PUSH2 0x864 DUP2 PUSH2 0x845 JUMP JUMPDEST DUP2 EQ PUSH2 0x86F JUMPI PUSH1 0x0 DUP1 REVERT JUMPDEST POP JUMP JUMPDEST PUSH1 0x0 DUP2 MLOAD SWAP1 POP PUSH2 0x881 DUP2 PUSH2 0x85B JUMP JUMPDEST SWAP3 SWAP2 POP POP JUMP JUMPDEST PUSH1 0x0 DUP2 SWAP1 POP SWAP2 SWAP1 POP JUMP JUMPDEST PUSH2 0x89A DUP2 PUSH2 0x887 JUMP JUMPDEST DUP2 EQ PUSH2 0x8A5 JUMPI PUSH1 0x0 DUP1 REVERT JUMPDEST POP JUMP JUMPDEST PUSH1 0x0 DUP2 MLOAD SWAP1 POP PUSH2 0x8B7 DUP2 PUSH2 0x891 JUMP JUMPDEST SWAP3 SWAP2 POP POP JUMP JUMPDEST PUSH1 0x0 DUP1 PUSH1 0x0 DUP1 PUSH1 0x0 PUSH1 0xA0 DUP7 DUP9 SUB SLT ISZERO PUSH2 0x8D9 JUMPI PUSH2 0x8D8 PUSH2 0x569 JUMP JUMPDEST JUMPDEST PUSH1 0x0 PUSH2 0x8E7 DUP9 DUP3 DUP10 ADD PUSH2 0x872 JUMP JUMPDEST SWAP6 POP POP PUSH1 0x20 PUSH2 0x8F8 DUP9 DUP3 DUP10 ADD PUSH2 0x8A8 JUMP JUMPDEST SWAP5 POP POP PUSH1 0x40 PUSH2 0x909 DUP9 DUP3 DUP10 ADD PUSH2 0x732 JUMP JUMPDEST SWAP4 POP POP PUSH1 0x60 PUSH2 0x91A DUP9 DUP3 DUP10 ADD PUSH2 0x732 JUMP JUMPDEST SWAP3 POP POP PUSH1 0x80 PUSH2 0x92B DUP9 DUP3 DUP10 ADD PUSH2 0x872 JUMP JUMPDEST SWAP2 POP POP SWAP3 SWAP6 POP SWAP3 SWAP6 SWAP1 SWAP4 POP JUMP JUMPDEST PUSH1 0x0 PUSH2 0x943 DUP3 PUSH2 0x887 JUMP JUMPDEST SWAP2 POP PUSH2 0x94E DUP4 PUSH2 0x887 JUMP JUMPDEST SWAP3 POP DUP3 DUP3 MUL PUSH2 0x95C DUP2 PUSH2 0x887 JUMP JUMPDEST SWAP2 POP PUSH32 0x8000000000000000000000000000000000000000000000000000000000000000 DUP5 EQ PUSH1 0x0 DUP5 SLT AND ISZERO PUSH2 0x994 JUMPI PUSH2 0x993 PUSH2 0x774 JUMP JUMPDEST JUMPDEST DUP3 DUP3 SDIV DUP5 EQ DUP4 ISZERO OR PUSH2 0x9A9 JUMPI PUSH2 0x9A8 PUSH2 0x774 JUMP JUMPDEST JUMPDEST POP SWAP3 SWAP2 POP POP JUMP JUMPDEST PUSH1 0x0 DUP3 DUP3 MSTORE PUSH1 0x20 DUP3 ADD SWAP1 POP SWAP3 SWAP2 POP POP JUMP JUMPDEST PUSH32 0x4E6F7420656E6F75676820455448207761732073656E742E0000000000000000 PUSH1 0x0 DUP3 ADD MSTORE POP JUMP JUMPDEST PUSH1 0x0 PUSH2 0x9F7 PUSH1 0x18 DUP4 PUSH2 0x9B0 JUMP JUMPDEST SWAP2 POP PUSH2 0xA02 DUP3 PUSH2 0x9C1 JUMP JUMPDEST PUSH1 0x20 DUP3 ADD SWAP1 POP SWAP2 SWAP1 POP JUMP JUMPDEST PUSH1 0x0 PUSH1 0x20 DUP3 ADD SWAP1 POP DUP2 DUP2 SUB PUSH1 0x0 DUP4 ADD MSTORE PUSH2 0xA26 DUP2 PUSH2 0x9EA JUMP JUMPDEST SWAP1 POP SWAP2 SWAP1 POP JUMP JUMPDEST PUSH1 0x0 PUSH2 0xA38 DUP3 PUSH2 0x535 JUMP JUMPDEST SWAP2 POP PUSH2 0xA43 DUP4 PUSH2 0x535 JUMP JUMPDEST SWAP3 POP DUP3 DUP3 ADD SWAP1 POP DUP1 DUP3 GT ISZERO PUSH2 0xA5B JUMPI PUSH2 0xA5A PUSH2 0x774 JUMP JUMPDEST JUMPDEST SWAP3 SWAP2 POP POP JUMP INVALID LOG2 PUSH5 0x6970667358 0x22 SLT KECCAK256 DUP3 LOG2 0xBC PUSH8 0xB2BF1B2C58469CD4 0xA9 JUMP 0x2A ISZERO PUSH16 0xD950FFD873969653E57920B882A0CA64 PUSH20 0x6F6C634300081200330000000000000000000000 "
				},
				"gasEstimates": {
					"creation": {
						"codeDepositCost": "542200",
						"executionCost": "22681",
						"totalCost": "564881"
					},
					"external": {
						"addressToAmountFunded(address)": "2881",
						"fund()": "infinite",
						"getConversionRate(uint256)": "infinite",
						"getFund()": "infinite",
						"getPrice()": "infinite",
						"getVersion()": "infinite",
						"minimumUsd()": "2430",
						"withdraw()": "189"
					}
				},
				"methodIdentifiers": {
					"addressToAmountFunded(address)": "3e47d6f3",
					"fund()": "b60d4288",
					"getConversionRate(uint256)": "6e5b6b28",
					"getFund()": "8edd6eb6",
					"getPrice()": "98d5fdca",
					"getVersion()": "0d8e6e2c",
					"minimumUsd()": "098de820",
					"withdraw()": "3ccfd60b"
				}
			},
			"storageLayout": {
				"storage": [
					{
						"astId": 57,
						"contract": "FundMe.sol:FundMe",
						"label": "minimumUsd",
						"offset": 0,
						"slot": "0",
						"type": "t_uint256"
					},
					{
						"astId": 60,
						"contract": "FundMe.sol:FundMe",
						"label": "funders",
						"offset": 0,
						"slot": "1",
						"type": "t_array(t_address)dyn_storage"
					},
					{
						"astId": 64,
						"contract": "FundMe.sol:FundMe",
						"label": "addressToAmountFunded",
						"offset": 0,
						"slot": "2",
						"type": "t_mapping(t_address,t_uint256)"
					}
				],
				"types": {
					"t_address": {
						"encoding": "inplace",
						"label": "address",
						"numberOfBytes": "20"
					},
					"t_array(t_address)dyn_storage": {
						"base": "t_address",
						"encoding": "dynamic_array",
						"label": "address[]",
						"numberOfBytes": "32"
					},
					"t_mapping(t_address,t_uint256)": {
						"encoding": "mapping",
						"key": "t_address",
						"label": "mapping(address => uint256)",
						"numberOfBytes": "32",
						"value": "t_uint256"
					},
					"t_uint256": {
						"encoding": "inplace",
						"label": "uint256",
						"numberOfBytes": "32"
					}
				}
			},
			"userdoc": {
				"kind": "user",
				"methods": {},
				"version": 1
			}
		}
	}
}